{
	"contracts/chai.sol": {
		"chai": {
			"abi": [
				{
					"inputs": [],
					"stateMutability": "nonpayable",
					"type": "constructor"
				},
				{
					"inputs": [
						{
							"internalType": "string",
							"name": "name",
							"type": "string"
						},
						{
							"internalType": "string",
							"name": "message",
							"type": "string"
						}
					],
					"name": "buyChai",
					"outputs": [],
					"stateMutability": "payable",
					"type": "function"
				},
				{
					"inputs": [],
					"name": "getMemos",
					"outputs": [
						{
							"components": [
								{
									"internalType": "string",
									"name": "name",
									"type": "string"
								},
								{
									"internalType": "string",
									"name": "message",
									"type": "string"
								},
								{
									"internalType": "uint256",
									"name": "timestamp",
									"type": "uint256"
								},
								{
									"internalType": "address",
									"name": "from",
									"type": "address"
								}
							],
							"internalType": "struct chai.Memo[]",
							"name": "",
							"type": "tuple[]"
						}
					],
					"stateMutability": "view",
					"type": "function"
				}
			],
			"devdoc": {
				"kind": "dev",
				"methods": {},
				"version": 1
			},
			"evm": {
				"assembly": "    /* \"contracts/chai.sol\":70:687  contract chai {... */\n  mstore(0x40, 0x80)\n    /* \"contracts/chai.sol\":263:323  constructor() {... */\n  callvalue\n  dup1\n  iszero\n  tag_1\n  jumpi\n  revert(0x00, 0x00)\ntag_1:\n  pop\n    /* \"contracts/chai.sol\":304:314  msg.sender */\n  caller\n    /* \"contracts/chai.sol\":288:293  owner */\n  0x01\n  0x00\n    /* \"contracts/chai.sol\":288:315  owner = payable(msg.sender) */\n  0x0100\n  exp\n  dup2\n  sload\n  dup2\n  0xffffffffffffffffffffffffffffffffffffffff\n  mul\n  not\n  and\n  swap1\n  dup4\n  0xffffffffffffffffffffffffffffffffffffffff\n  and\n  mul\n  or\n  swap1\n  sstore\n  pop\n    /* \"contracts/chai.sol\":70:687  contract chai {... */\n  dataSize(sub_0)\n  dup1\n  dataOffset(sub_0)\n  0x00\n  codecopy\n  0x00\n  return\nstop\n\nsub_0: assembly {\n        /* \"contracts/chai.sol\":70:687  contract chai {... */\n      mstore(0x40, 0x80)\n      jumpi(tag_1, lt(calldatasize, 0x04))\n      shr(0xe0, calldataload(0x00))\n      dup1\n      0x6a13d859\n      eq\n      tag_2\n      jumpi\n      dup1\n      0x865c5172\n      eq\n      tag_3\n      jumpi\n    tag_1:\n      revert(0x00, 0x00)\n        /* \"contracts/chai.sol\":331:589  function buyChai(string memory name, string memory message) public payable {... */\n    tag_2:\n      tag_4\n      0x04\n      dup1\n      calldatasize\n      sub\n      dup2\n      add\n      swap1\n      tag_5\n      swap2\n      swap1\n      tag_6\n      jump\t// in\n    tag_5:\n      tag_7\n      jump\t// in\n    tag_4:\n      stop\n        /* \"contracts/chai.sol\":597:684  function getMemos() public view returns (Memo[] memory) {... */\n    tag_3:\n      callvalue\n      dup1\n      iszero\n      tag_8\n      jumpi\n      revert(0x00, 0x00)\n    tag_8:\n      pop\n      tag_9\n      tag_10\n      jump\t// in\n    tag_9:\n      mload(0x40)\n      tag_11\n      swap2\n      swap1\n      tag_12\n      jump\t// in\n    tag_11:\n      mload(0x40)\n      dup1\n      swap2\n      sub\n      swap1\n      return\n        /* \"contracts/chai.sol\":331:589  function buyChai(string memory name, string memory message) public payable {... */\n    tag_7:\n        /* \"contracts/chai.sol\":437:438  0 */\n      0x00\n        /* \"contracts/chai.sol\":425:434  msg.value */\n      callvalue\n        /* \"contracts/chai.sol\":425:438  msg.value > 0 */\n      gt\n        /* \"contracts/chai.sol\":417:474  require(msg.value > 0, \"Please pay greater than 0 ether\") */\n      tag_14\n      jumpi\n      mload(0x40)\n      0x08c379a000000000000000000000000000000000000000000000000000000000\n      dup2\n      mstore\n      0x04\n      add\n      tag_15\n      swap1\n      tag_16\n      jump\t// in\n    tag_15:\n      mload(0x40)\n      dup1\n      swap2\n      sub\n      swap1\n      revert\n    tag_14:\n        /* \"contracts/chai.sol\":485:490  owner */\n      0x01\n      0x00\n      swap1\n      sload\n      swap1\n      0x0100\n      exp\n      swap1\n      div\n      0xffffffffffffffffffffffffffffffffffffffff\n      and\n        /* \"contracts/chai.sol\":485:499  owner.transfer */\n      0xffffffffffffffffffffffffffffffffffffffff\n      and\n        /* \"contracts/chai.sol\":485:510  owner.transfer(msg.value) */\n      0x08fc\n        /* \"contracts/chai.sol\":500:509  msg.value */\n      callvalue\n        /* \"contracts/chai.sol\":485:510  owner.transfer(msg.value) */\n      swap1\n      dup2\n      iszero\n      mul\n      swap1\n      mload(0x40)\n      0x00\n      mload(0x40)\n      dup1\n      dup4\n      sub\n      dup2\n      dup6\n      dup9\n      dup9\n      call\n      swap4\n      pop\n      pop\n      pop\n      pop\n      iszero\n      dup1\n      iszero\n      tag_18\n      jumpi\n      returndatacopy(0x00, 0x00, returndatasize)\n      revert(0x00, returndatasize)\n    tag_18:\n      pop\n        /* \"contracts/chai.sol\":521:526  memos */\n      0x00\n        /* \"contracts/chai.sol\":532:580  Memo(name, message, block.timestamp, msg.sender) */\n      mload(0x40)\n      dup1\n      0x80\n      add\n      0x40\n      mstore\n      dup1\n        /* \"contracts/chai.sol\":537:541  name */\n      dup5\n        /* \"contracts/chai.sol\":532:580  Memo(name, message, block.timestamp, msg.sender) */\n      dup2\n      mstore\n      0x20\n      add\n        /* \"contracts/chai.sol\":543:550  message */\n      dup4\n        /* \"contracts/chai.sol\":532:580  Memo(name, message, block.timestamp, msg.sender) */\n      dup2\n      mstore\n      0x20\n      add\n        /* \"contracts/chai.sol\":552:567  block.timestamp */\n      timestamp\n        /* \"contracts/chai.sol\":532:580  Memo(name, message, block.timestamp, msg.sender) */\n      dup2\n      mstore\n      0x20\n      add\n        /* \"contracts/chai.sol\":569:579  msg.sender */\n      caller\n        /* \"contracts/chai.sol\":532:580  Memo(name, message, block.timestamp, msg.sender) */\n      0xffffffffffffffffffffffffffffffffffffffff\n      and\n      dup2\n      mstore\n      pop\n        /* \"contracts/chai.sol\":521:581  memos.push(Memo(name, message, block.timestamp, msg.sender)) */\n      swap1\n      dup1\n      0x01\n      dup2\n      sload\n      add\n      dup1\n      dup3\n      sstore\n      dup1\n      swap2\n      pop\n      pop\n      0x01\n      swap1\n      sub\n      swap1\n      0x00\n      mstore\n      keccak256(0x00, 0x20)\n      swap1\n      0x04\n      mul\n      add\n      0x00\n      swap1\n      swap2\n      swap1\n      swap2\n      swap1\n      swap2\n      pop\n      0x00\n      dup3\n      add\n      mload\n      dup2\n      0x00\n      add\n      swap1\n      dup2\n      tag_20\n      swap2\n      swap1\n      tag_21\n      jump\t// in\n    tag_20:\n      pop\n      0x20\n      dup3\n      add\n      mload\n      dup2\n      0x01\n      add\n      swap1\n      dup2\n      tag_22\n      swap2\n      swap1\n      tag_21\n      jump\t// in\n    tag_22:\n      pop\n      0x40\n      dup3\n      add\n      mload\n      dup2\n      0x02\n      add\n      sstore\n      0x60\n      dup3\n      add\n      mload\n      dup2\n      0x03\n      add\n      exp(0x0100, 0x00)\n      dup2\n      sload\n      dup2\n      0xffffffffffffffffffffffffffffffffffffffff\n      mul\n      not\n      and\n      swap1\n      dup4\n      0xffffffffffffffffffffffffffffffffffffffff\n      and\n      mul\n      or\n      swap1\n      sstore\n      pop\n      pop\n      pop\n        /* \"contracts/chai.sol\":331:589  function buyChai(string memory name, string memory message) public payable {... */\n      pop\n      pop\n      jump\t// out\n        /* \"contracts/chai.sol\":597:684  function getMemos() public view returns (Memo[] memory) {... */\n    tag_10:\n        /* \"contracts/chai.sol\":638:651  Memo[] memory */\n      0x60\n        /* \"contracts/chai.sol\":671:676  memos */\n      0x00\n        /* \"contracts/chai.sol\":664:676  return memos */\n      dup1\n      sload\n      dup1\n      0x20\n      mul\n      0x20\n      add\n      mload(0x40)\n      swap1\n      dup2\n      add\n      0x40\n      mstore\n      dup1\n      swap3\n      swap2\n      swap1\n      dup2\n      dup2\n      mstore\n      0x20\n      add\n      0x00\n      swap1\n    tag_24:\n      dup3\n      dup3\n      lt\n      iszero\n      tag_25\n      jumpi\n      dup4\n      dup3\n      swap1\n      0x00\n      mstore\n      keccak256(0x00, 0x20)\n      swap1\n      0x04\n      mul\n      add\n      mload(0x40)\n      dup1\n      0x80\n      add\n      0x40\n      mstore\n      swap1\n      dup2\n      0x00\n      dup3\n      add\n      dup1\n      sload\n      tag_27\n      swap1\n      tag_28\n      jump\t// in\n    tag_27:\n      dup1\n      0x1f\n      add\n      0x20\n      dup1\n      swap2\n      div\n      mul\n      0x20\n      add\n      mload(0x40)\n      swap1\n      dup2\n      add\n      0x40\n      mstore\n      dup1\n      swap3\n      swap2\n      swap1\n      dup2\n      dup2\n      mstore\n      0x20\n      add\n      dup3\n      dup1\n      sload\n      tag_29\n      swap1\n      tag_28\n      jump\t// in\n    tag_29:\n      dup1\n      iszero\n      tag_30\n      jumpi\n      dup1\n      0x1f\n      lt\n      tag_31\n      jumpi\n      0x0100\n      dup1\n      dup4\n      sload\n      div\n      mul\n      dup4\n      mstore\n      swap2\n      0x20\n      add\n      swap2\n      jump(tag_30)\n    tag_31:\n      dup3\n      add\n      swap2\n      swap1\n      0x00\n      mstore\n      keccak256(0x00, 0x20)\n      swap1\n    tag_32:\n      dup2\n      sload\n      dup2\n      mstore\n      swap1\n      0x01\n      add\n      swap1\n      0x20\n      add\n      dup1\n      dup4\n      gt\n      tag_32\n      jumpi\n      dup3\n      swap1\n      sub\n      0x1f\n      and\n      dup3\n      add\n      swap2\n    tag_30:\n      pop\n      pop\n      pop\n      pop\n      pop\n      dup2\n      mstore\n      0x20\n      add\n      0x01\n      dup3\n      add\n      dup1\n      sload\n      tag_33\n      swap1\n      tag_28\n      jump\t// in\n    tag_33:\n      dup1\n      0x1f\n      add\n      0x20\n      dup1\n      swap2\n      div\n      mul\n      0x20\n      add\n      mload(0x40)\n      swap1\n      dup2\n      add\n      0x40\n      mstore\n      dup1\n      swap3\n      swap2\n      swap1\n      dup2\n      dup2\n      mstore\n      0x20\n      add\n      dup3\n      dup1\n      sload\n      tag_34\n      swap1\n      tag_28\n      jump\t// in\n    tag_34:\n      dup1\n      iszero\n      tag_35\n      jumpi\n      dup1\n      0x1f\n      lt\n      tag_36\n      jumpi\n      0x0100\n      dup1\n      dup4\n      sload\n      div\n      mul\n      dup4\n      mstore\n      swap2\n      0x20\n      add\n      swap2\n      jump(tag_35)\n    tag_36:\n      dup3\n      add\n      swap2\n      swap1\n      0x00\n      mstore\n      keccak256(0x00, 0x20)\n      swap1\n    tag_37:\n      dup2\n      sload\n      dup2\n      mstore\n      swap1\n      0x01\n      add\n      swap1\n      0x20\n      add\n      dup1\n      dup4\n      gt\n      tag_37\n      jumpi\n      dup3\n      swap1\n      sub\n      0x1f\n      and\n      dup3\n      add\n      swap2\n    tag_35:\n      pop\n      pop\n      pop\n      pop\n      pop\n      dup2\n      mstore\n      0x20\n      add\n      0x02\n      dup3\n      add\n      sload\n      dup2\n      mstore\n      0x20\n      add\n      0x03\n      dup3\n      add\n      0x00\n      swap1\n      sload\n      swap1\n      0x0100\n      exp\n      swap1\n      div\n      0xffffffffffffffffffffffffffffffffffffffff\n      and\n      0xffffffffffffffffffffffffffffffffffffffff\n      and\n      0xffffffffffffffffffffffffffffffffffffffff\n      and\n      dup2\n      mstore\n      pop\n      pop\n      dup2\n      mstore\n      0x20\n      add\n      swap1\n      0x01\n      add\n      swap1\n      jump(tag_24)\n    tag_25:\n      pop\n      pop\n      pop\n      pop\n      swap1\n      pop\n        /* \"contracts/chai.sol\":597:684  function getMemos() public view returns (Memo[] memory) {... */\n      swap1\n      jump\t// out\n        /* \"#utility.yul\":7:82   */\n    tag_38:\n        /* \"#utility.yul\":40:46   */\n      0x00\n        /* \"#utility.yul\":73:75   */\n      0x40\n        /* \"#utility.yul\":67:76   */\n      mload\n        /* \"#utility.yul\":57:76   */\n      swap1\n      pop\n        /* \"#utility.yul\":7:82   */\n      swap1\n      jump\t// out\n        /* \"#utility.yul\":88:205   */\n    tag_39:\n        /* \"#utility.yul\":197:198   */\n      0x00\n        /* \"#utility.yul\":194:195   */\n      0x00\n        /* \"#utility.yul\":187:199   */\n      revert\n        /* \"#utility.yul\":211:328   */\n    tag_40:\n        /* \"#utility.yul\":320:321   */\n      0x00\n        /* \"#utility.yul\":317:318   */\n      0x00\n        /* \"#utility.yul\":310:322   */\n      revert\n        /* \"#utility.yul\":334:451   */\n    tag_41:\n        /* \"#utility.yul\":443:444   */\n      0x00\n        /* \"#utility.yul\":440:441   */\n      0x00\n        /* \"#utility.yul\":433:445   */\n      revert\n        /* \"#utility.yul\":457:574   */\n    tag_42:\n        /* \"#utility.yul\":566:567   */\n      0x00\n        /* \"#utility.yul\":563:564   */\n      0x00\n        /* \"#utility.yul\":556:568   */\n      revert\n        /* \"#utility.yul\":580:682   */\n    tag_43:\n        /* \"#utility.yul\":621:627   */\n      0x00\n        /* \"#utility.yul\":672:674   */\n      0x1f\n        /* \"#utility.yul\":668:675   */\n      not\n        /* \"#utility.yul\":663:665   */\n      0x1f\n        /* \"#utility.yul\":656:661   */\n      dup4\n        /* \"#utility.yul\":652:666   */\n      add\n        /* \"#utility.yul\":648:676   */\n      and\n        /* \"#utility.yul\":638:676   */\n      swap1\n      pop\n        /* \"#utility.yul\":580:682   */\n      swap2\n      swap1\n      pop\n      jump\t// out\n        /* \"#utility.yul\":688:868   */\n    tag_44:\n        /* \"#utility.yul\":736:813   */\n      0x4e487b7100000000000000000000000000000000000000000000000000000000\n        /* \"#utility.yul\":733:734   */\n      0x00\n        /* \"#utility.yul\":726:814   */\n      mstore\n        /* \"#utility.yul\":833:837   */\n      0x41\n        /* \"#utility.yul\":830:831   */\n      0x04\n        /* \"#utility.yul\":823:838   */\n      mstore\n        /* \"#utility.yul\":857:861   */\n      0x24\n        /* \"#utility.yul\":854:855   */\n      0x00\n        /* \"#utility.yul\":847:862   */\n      revert\n        /* \"#utility.yul\":874:1155   */\n    tag_45:\n        /* \"#utility.yul\":957:984   */\n      tag_95\n        /* \"#utility.yul\":979:983   */\n      dup3\n        /* \"#utility.yul\":957:984   */\n      tag_43\n      jump\t// in\n    tag_95:\n        /* \"#utility.yul\":949:955   */\n      dup2\n        /* \"#utility.yul\":945:985   */\n      add\n        /* \"#utility.yul\":1087:1093   */\n      dup2\n        /* \"#utility.yul\":1075:1085   */\n      dup2\n        /* \"#utility.yul\":1072:1094   */\n      lt\n        /* \"#utility.yul\":1051:1069   */\n      0xffffffffffffffff\n        /* \"#utility.yul\":1039:1049   */\n      dup3\n        /* \"#utility.yul\":1036:1070   */\n      gt\n        /* \"#utility.yul\":1033:1095   */\n      or\n        /* \"#utility.yul\":1030:1118   */\n      iszero\n      tag_96\n      jumpi\n        /* \"#utility.yul\":1098:1116   */\n      tag_97\n      tag_44\n      jump\t// in\n    tag_97:\n        /* \"#utility.yul\":1030:1118   */\n    tag_96:\n        /* \"#utility.yul\":1138:1148   */\n      dup1\n        /* \"#utility.yul\":1134:1136   */\n      0x40\n        /* \"#utility.yul\":1127:1149   */\n      mstore\n        /* \"#utility.yul\":917:1155   */\n      pop\n        /* \"#utility.yul\":874:1155   */\n      pop\n      pop\n      jump\t// out\n        /* \"#utility.yul\":1161:1290   */\n    tag_46:\n        /* \"#utility.yul\":1195:1201   */\n      0x00\n        /* \"#utility.yul\":1222:1242   */\n      tag_99\n      tag_38\n      jump\t// in\n    tag_99:\n        /* \"#utility.yul\":1212:1242   */\n      swap1\n      pop\n        /* \"#utility.yul\":1251:1284   */\n      tag_100\n        /* \"#utility.yul\":1279:1283   */\n      dup3\n        /* \"#utility.yul\":1271:1277   */\n      dup3\n        /* \"#utility.yul\":1251:1284   */\n      tag_45\n      jump\t// in\n    tag_100:\n        /* \"#utility.yul\":1161:1290   */\n      swap2\n      swap1\n      pop\n      jump\t// out\n        /* \"#utility.yul\":1296:1604   */\n    tag_47:\n        /* \"#utility.yul\":1358:1362   */\n      0x00\n        /* \"#utility.yul\":1448:1466   */\n      0xffffffffffffffff\n        /* \"#utility.yul\":1440:1446   */\n      dup3\n        /* \"#utility.yul\":1437:1467   */\n      gt\n        /* \"#utility.yul\":1434:1490   */\n      iszero\n      tag_102\n      jumpi\n        /* \"#utility.yul\":1470:1488   */\n      tag_103\n      tag_44\n      jump\t// in\n    tag_103:\n        /* \"#utility.yul\":1434:1490   */\n    tag_102:\n        /* \"#utility.yul\":1508:1537   */\n      tag_104\n        /* \"#utility.yul\":1530:1536   */\n      dup3\n        /* \"#utility.yul\":1508:1537   */\n      tag_43\n      jump\t// in\n    tag_104:\n        /* \"#utility.yul\":1500:1537   */\n      swap1\n      pop\n        /* \"#utility.yul\":1592:1596   */\n      0x20\n        /* \"#utility.yul\":1586:1590   */\n      dup2\n        /* \"#utility.yul\":1582:1597   */\n      add\n        /* \"#utility.yul\":1574:1597   */\n      swap1\n      pop\n        /* \"#utility.yul\":1296:1604   */\n      swap2\n      swap1\n      pop\n      jump\t// out\n        /* \"#utility.yul\":1610:1758   */\n    tag_48:\n        /* \"#utility.yul\":1708:1714   */\n      dup3\n        /* \"#utility.yul\":1703:1706   */\n      dup2\n        /* \"#utility.yul\":1698:1701   */\n      dup4\n        /* \"#utility.yul\":1685:1715   */\n      calldatacopy\n        /* \"#utility.yul\":1749:1750   */\n      0x00\n        /* \"#utility.yul\":1740:1746   */\n      dup4\n        /* \"#utility.yul\":1735:1738   */\n      dup4\n        /* \"#utility.yul\":1731:1747   */\n      add\n        /* \"#utility.yul\":1724:1751   */\n      mstore\n        /* \"#utility.yul\":1610:1758   */\n      pop\n      pop\n      pop\n      jump\t// out\n        /* \"#utility.yul\":1764:2189   */\n    tag_49:\n        /* \"#utility.yul\":1842:1847   */\n      0x00\n        /* \"#utility.yul\":1867:1933   */\n      tag_107\n        /* \"#utility.yul\":1883:1932   */\n      tag_108\n        /* \"#utility.yul\":1925:1931   */\n      dup5\n        /* \"#utility.yul\":1883:1932   */\n      tag_47\n      jump\t// in\n    tag_108:\n        /* \"#utility.yul\":1867:1933   */\n      tag_46\n      jump\t// in\n    tag_107:\n        /* \"#utility.yul\":1858:1933   */\n      swap1\n      pop\n        /* \"#utility.yul\":1956:1962   */\n      dup3\n        /* \"#utility.yul\":1949:1954   */\n      dup2\n        /* \"#utility.yul\":1942:1963   */\n      mstore\n        /* \"#utility.yul\":1994:1998   */\n      0x20\n        /* \"#utility.yul\":1987:1992   */\n      dup2\n        /* \"#utility.yul\":1983:1999   */\n      add\n        /* \"#utility.yul\":2032:2035   */\n      dup5\n        /* \"#utility.yul\":2023:2029   */\n      dup5\n        /* \"#utility.yul\":2018:2021   */\n      dup5\n        /* \"#utility.yul\":2014:2030   */\n      add\n        /* \"#utility.yul\":2011:2036   */\n      gt\n        /* \"#utility.yul\":2008:2120   */\n      iszero\n      tag_109\n      jumpi\n        /* \"#utility.yul\":2039:2118   */\n      tag_110\n      tag_42\n      jump\t// in\n    tag_110:\n        /* \"#utility.yul\":2008:2120   */\n    tag_109:\n        /* \"#utility.yul\":2129:2183   */\n      tag_111\n        /* \"#utility.yul\":2176:2182   */\n      dup5\n        /* \"#utility.yul\":2171:2174   */\n      dup3\n        /* \"#utility.yul\":2166:2169   */\n      dup6\n        /* \"#utility.yul\":2129:2183   */\n      tag_48\n      jump\t// in\n    tag_111:\n        /* \"#utility.yul\":1848:2189   */\n      pop\n        /* \"#utility.yul\":1764:2189   */\n      swap4\n      swap3\n      pop\n      pop\n      pop\n      jump\t// out\n        /* \"#utility.yul\":2209:2549   */\n    tag_50:\n        /* \"#utility.yul\":2265:2270   */\n      0x00\n        /* \"#utility.yul\":2314:2317   */\n      dup3\n        /* \"#utility.yul\":2307:2311   */\n      0x1f\n        /* \"#utility.yul\":2299:2305   */\n      dup4\n        /* \"#utility.yul\":2295:2312   */\n      add\n        /* \"#utility.yul\":2291:2318   */\n      slt\n        /* \"#utility.yul\":2281:2403   */\n      tag_113\n      jumpi\n        /* \"#utility.yul\":2322:2401   */\n      tag_114\n      tag_41\n      jump\t// in\n    tag_114:\n        /* \"#utility.yul\":2281:2403   */\n    tag_113:\n        /* \"#utility.yul\":2439:2445   */\n      dup2\n        /* \"#utility.yul\":2426:2446   */\n      calldataload\n        /* \"#utility.yul\":2464:2543   */\n      tag_115\n        /* \"#utility.yul\":2539:2542   */\n      dup5\n        /* \"#utility.yul\":2531:2537   */\n      dup3\n        /* \"#utility.yul\":2524:2528   */\n      0x20\n        /* \"#utility.yul\":2516:2522   */\n      dup7\n        /* \"#utility.yul\":2512:2529   */\n      add\n        /* \"#utility.yul\":2464:2543   */\n      tag_49\n      jump\t// in\n    tag_115:\n        /* \"#utility.yul\":2455:2543   */\n      swap2\n      pop\n        /* \"#utility.yul\":2271:2549   */\n      pop\n        /* \"#utility.yul\":2209:2549   */\n      swap3\n      swap2\n      pop\n      pop\n      jump\t// out\n        /* \"#utility.yul\":2555:3389   */\n    tag_6:\n        /* \"#utility.yul\":2643:2649   */\n      0x00\n        /* \"#utility.yul\":2651:2657   */\n      0x00\n        /* \"#utility.yul\":2700:2702   */\n      0x40\n        /* \"#utility.yul\":2688:2697   */\n      dup4\n        /* \"#utility.yul\":2679:2686   */\n      dup6\n        /* \"#utility.yul\":2675:2698   */\n      sub\n        /* \"#utility.yul\":2671:2703   */\n      slt\n        /* \"#utility.yul\":2668:2787   */\n      iszero\n      tag_117\n      jumpi\n        /* \"#utility.yul\":2706:2785   */\n      tag_118\n      tag_39\n      jump\t// in\n    tag_118:\n        /* \"#utility.yul\":2668:2787   */\n    tag_117:\n        /* \"#utility.yul\":2854:2855   */\n      0x00\n        /* \"#utility.yul\":2843:2852   */\n      dup4\n        /* \"#utility.yul\":2839:2856   */\n      add\n        /* \"#utility.yul\":2826:2857   */\n      calldataload\n        /* \"#utility.yul\":2884:2902   */\n      0xffffffffffffffff\n        /* \"#utility.yul\":2876:2882   */\n      dup2\n        /* \"#utility.yul\":2873:2903   */\n      gt\n        /* \"#utility.yul\":2870:2987   */\n      iszero\n      tag_119\n      jumpi\n        /* \"#utility.yul\":2906:2985   */\n      tag_120\n      tag_40\n      jump\t// in\n    tag_120:\n        /* \"#utility.yul\":2870:2987   */\n    tag_119:\n        /* \"#utility.yul\":3011:3074   */\n      tag_121\n        /* \"#utility.yul\":3066:3073   */\n      dup6\n        /* \"#utility.yul\":3057:3063   */\n      dup3\n        /* \"#utility.yul\":3046:3055   */\n      dup7\n        /* \"#utility.yul\":3042:3064   */\n      add\n        /* \"#utility.yul\":3011:3074   */\n      tag_50\n      jump\t// in\n    tag_121:\n        /* \"#utility.yul\":3001:3074   */\n      swap3\n      pop\n        /* \"#utility.yul\":2797:3084   */\n      pop\n        /* \"#utility.yul\":3151:3153   */\n      0x20\n        /* \"#utility.yul\":3140:3149   */\n      dup4\n        /* \"#utility.yul\":3136:3154   */\n      add\n        /* \"#utility.yul\":3123:3155   */\n      calldataload\n        /* \"#utility.yul\":3182:3200   */\n      0xffffffffffffffff\n        /* \"#utility.yul\":3174:3180   */\n      dup2\n        /* \"#utility.yul\":3171:3201   */\n      gt\n        /* \"#utility.yul\":3168:3285   */\n      iszero\n      tag_122\n      jumpi\n        /* \"#utility.yul\":3204:3283   */\n      tag_123\n      tag_40\n      jump\t// in\n    tag_123:\n        /* \"#utility.yul\":3168:3285   */\n    tag_122:\n        /* \"#utility.yul\":3309:3372   */\n      tag_124\n        /* \"#utility.yul\":3364:3371   */\n      dup6\n        /* \"#utility.yul\":3355:3361   */\n      dup3\n        /* \"#utility.yul\":3344:3353   */\n      dup7\n        /* \"#utility.yul\":3340:3362   */\n      add\n        /* \"#utility.yul\":3309:3372   */\n      tag_50\n      jump\t// in\n    tag_124:\n        /* \"#utility.yul\":3299:3372   */\n      swap2\n      pop\n        /* \"#utility.yul\":3094:3382   */\n      pop\n        /* \"#utility.yul\":2555:3389   */\n      swap3\n      pop\n      swap3\n      swap1\n      pop\n      jump\t// out\n        /* \"#utility.yul\":3395:3529   */\n    tag_51:\n        /* \"#utility.yul\":3482:3488   */\n      0x00\n        /* \"#utility.yul\":3516:3521   */\n      dup2\n        /* \"#utility.yul\":3510:3522   */\n      mload\n        /* \"#utility.yul\":3500:3522   */\n      swap1\n      pop\n        /* \"#utility.yul\":3395:3529   */\n      swap2\n      swap1\n      pop\n      jump\t// out\n        /* \"#utility.yul\":3535:3739   */\n    tag_52:\n        /* \"#utility.yul\":3654:3665   */\n      0x00\n        /* \"#utility.yul\":3688:3694   */\n      dup3\n        /* \"#utility.yul\":3683:3686   */\n      dup3\n        /* \"#utility.yul\":3676:3695   */\n      mstore\n        /* \"#utility.yul\":3728:3732   */\n      0x20\n        /* \"#utility.yul\":3723:3726   */\n      dup3\n        /* \"#utility.yul\":3719:3733   */\n      add\n        /* \"#utility.yul\":3704:3733   */\n      swap1\n      pop\n        /* \"#utility.yul\":3535:3739   */\n      swap3\n      swap2\n      pop\n      pop\n      jump\t// out\n        /* \"#utility.yul\":3745:3897   */\n    tag_53:\n        /* \"#utility.yul\":3832:3836   */\n      0x00\n        /* \"#utility.yul\":3855:3858   */\n      dup2\n        /* \"#utility.yul\":3847:3858   */\n      swap1\n      pop\n        /* \"#utility.yul\":3885:3889   */\n      0x20\n        /* \"#utility.yul\":3880:3883   */\n      dup3\n        /* \"#utility.yul\":3876:3890   */\n      add\n        /* \"#utility.yul\":3868:3890   */\n      swap1\n      pop\n        /* \"#utility.yul\":3745:3897   */\n      swap2\n      swap1\n      pop\n      jump\t// out\n        /* \"#utility.yul\":3903:4002   */\n    tag_54:\n        /* \"#utility.yul\":3955:3961   */\n      0x00\n        /* \"#utility.yul\":3989:3994   */\n      dup2\n        /* \"#utility.yul\":3983:3995   */\n      mload\n        /* \"#utility.yul\":3973:3995   */\n      swap1\n      pop\n        /* \"#utility.yul\":3903:4002   */\n      swap2\n      swap1\n      pop\n      jump\t// out\n        /* \"#utility.yul\":4008:4167   */\n    tag_55:\n        /* \"#utility.yul\":4082:4093   */\n      0x00\n        /* \"#utility.yul\":4116:4122   */\n      dup3\n        /* \"#utility.yul\":4111:4114   */\n      dup3\n        /* \"#utility.yul\":4104:4123   */\n      mstore\n        /* \"#utility.yul\":4156:4160   */\n      0x20\n        /* \"#utility.yul\":4151:4154   */\n      dup3\n        /* \"#utility.yul\":4147:4161   */\n      add\n        /* \"#utility.yul\":4132:4161   */\n      swap1\n      pop\n        /* \"#utility.yul\":4008:4167   */\n      swap3\n      swap2\n      pop\n      pop\n      jump\t// out\n        /* \"#utility.yul\":4173:4312   */\n    tag_56:\n        /* \"#utility.yul\":4262:4268   */\n      dup3\n        /* \"#utility.yul\":4257:4260   */\n      dup2\n        /* \"#utility.yul\":4252:4255   */\n      dup4\n        /* \"#utility.yul\":4246:4269   */\n      mcopy\n        /* \"#utility.yul\":4303:4304   */\n      0x00\n        /* \"#utility.yul\":4294:4300   */\n      dup4\n        /* \"#utility.yul\":4289:4292   */\n      dup4\n        /* \"#utility.yul\":4285:4301   */\n      add\n        /* \"#utility.yul\":4278:4305   */\n      mstore\n        /* \"#utility.yul\":4173:4312   */\n      pop\n      pop\n      pop\n      jump\t// out\n        /* \"#utility.yul\":4318:4675   */\n    tag_57:\n        /* \"#utility.yul\":4396:4399   */\n      0x00\n        /* \"#utility.yul\":4424:4463   */\n      tag_132\n        /* \"#utility.yul\":4457:4462   */\n      dup3\n        /* \"#utility.yul\":4424:4463   */\n      tag_54\n      jump\t// in\n    tag_132:\n        /* \"#utility.yul\":4479:4540   */\n      tag_133\n        /* \"#utility.yul\":4533:4539   */\n      dup2\n        /* \"#utility.yul\":4528:4531   */\n      dup6\n        /* \"#utility.yul\":4479:4540   */\n      tag_55\n      jump\t// in\n    tag_133:\n        /* \"#utility.yul\":4472:4540   */\n      swap4\n      pop\n        /* \"#utility.yul\":4549:4614   */\n      tag_134\n        /* \"#utility.yul\":4607:4613   */\n      dup2\n        /* \"#utility.yul\":4602:4605   */\n      dup6\n        /* \"#utility.yul\":4595:4599   */\n      0x20\n        /* \"#utility.yul\":4588:4593   */\n      dup7\n        /* \"#utility.yul\":4584:4600   */\n      add\n        /* \"#utility.yul\":4549:4614   */\n      tag_56\n      jump\t// in\n    tag_134:\n        /* \"#utility.yul\":4639:4668   */\n      tag_135\n        /* \"#utility.yul\":4661:4667   */\n      dup2\n        /* \"#utility.yul\":4639:4668   */\n      tag_43\n      jump\t// in\n    tag_135:\n        /* \"#utility.yul\":4634:4637   */\n      dup5\n        /* \"#utility.yul\":4630:4669   */\n      add\n        /* \"#utility.yul\":4623:4669   */\n      swap2\n      pop\n        /* \"#utility.yul\":4400:4675   */\n      pop\n        /* \"#utility.yul\":4318:4675   */\n      swap3\n      swap2\n      pop\n      pop\n      jump\t// out\n        /* \"#utility.yul\":4681:4758   */\n    tag_58:\n        /* \"#utility.yul\":4718:4725   */\n      0x00\n        /* \"#utility.yul\":4747:4752   */\n      dup2\n        /* \"#utility.yul\":4736:4752   */\n      swap1\n      pop\n        /* \"#utility.yul\":4681:4758   */\n      swap2\n      swap1\n      pop\n      jump\t// out\n        /* \"#utility.yul\":4764:4872   */\n    tag_59:\n        /* \"#utility.yul\":4841:4865   */\n      tag_138\n        /* \"#utility.yul\":4859:4864   */\n      dup2\n        /* \"#utility.yul\":4841:4865   */\n      tag_58\n      jump\t// in\n    tag_138:\n        /* \"#utility.yul\":4836:4839   */\n      dup3\n        /* \"#utility.yul\":4829:4866   */\n      mstore\n        /* \"#utility.yul\":4764:4872   */\n      pop\n      pop\n      jump\t// out\n        /* \"#utility.yul\":4878:5004   */\n    tag_60:\n        /* \"#utility.yul\":4915:4922   */\n      0x00\n        /* \"#utility.yul\":4955:4997   */\n      0xffffffffffffffffffffffffffffffffffffffff\n        /* \"#utility.yul\":4948:4953   */\n      dup3\n        /* \"#utility.yul\":4944:4998   */\n      and\n        /* \"#utility.yul\":4933:4998   */\n      swap1\n      pop\n        /* \"#utility.yul\":4878:5004   */\n      swap2\n      swap1\n      pop\n      jump\t// out\n        /* \"#utility.yul\":5010:5106   */\n    tag_61:\n        /* \"#utility.yul\":5047:5054   */\n      0x00\n        /* \"#utility.yul\":5076:5100   */\n      tag_141\n        /* \"#utility.yul\":5094:5099   */\n      dup3\n        /* \"#utility.yul\":5076:5100   */\n      tag_60\n      jump\t// in\n    tag_141:\n        /* \"#utility.yul\":5065:5100   */\n      swap1\n      pop\n        /* \"#utility.yul\":5010:5106   */\n      swap2\n      swap1\n      pop\n      jump\t// out\n        /* \"#utility.yul\":5112:5220   */\n    tag_62:\n        /* \"#utility.yul\":5189:5213   */\n      tag_143\n        /* \"#utility.yul\":5207:5212   */\n      dup2\n        /* \"#utility.yul\":5189:5213   */\n      tag_61\n      jump\t// in\n    tag_143:\n        /* \"#utility.yul\":5184:5187   */\n      dup3\n        /* \"#utility.yul\":5177:5214   */\n      mstore\n        /* \"#utility.yul\":5112:5220   */\n      pop\n      pop\n      jump\t// out\n        /* \"#utility.yul\":5270:6283   */\n    tag_63:\n        /* \"#utility.yul\":5369:5372   */\n      0x00\n        /* \"#utility.yul\":5405:5409   */\n      0x80\n        /* \"#utility.yul\":5400:5403   */\n      dup4\n        /* \"#utility.yul\":5396:5410   */\n      add\n        /* \"#utility.yul\":5492:5496   */\n      0x00\n        /* \"#utility.yul\":5485:5490   */\n      dup4\n        /* \"#utility.yul\":5481:5497   */\n      add\n        /* \"#utility.yul\":5475:5498   */\n      mload\n        /* \"#utility.yul\":5545:5548   */\n      dup5\n        /* \"#utility.yul\":5539:5543   */\n      dup3\n        /* \"#utility.yul\":5535:5549   */\n      sub\n        /* \"#utility.yul\":5528:5532   */\n      0x00\n        /* \"#utility.yul\":5523:5526   */\n      dup7\n        /* \"#utility.yul\":5519:5533   */\n      add\n        /* \"#utility.yul\":5512:5550   */\n      mstore\n        /* \"#utility.yul\":5571:5644   */\n      tag_145\n        /* \"#utility.yul\":5639:5643   */\n      dup3\n        /* \"#utility.yul\":5625:5637   */\n      dup3\n        /* \"#utility.yul\":5571:5644   */\n      tag_57\n      jump\t// in\n    tag_145:\n        /* \"#utility.yul\":5563:5644   */\n      swap2\n      pop\n        /* \"#utility.yul\":5420:5655   */\n      pop\n        /* \"#utility.yul\":5740:5744   */\n      0x20\n        /* \"#utility.yul\":5733:5738   */\n      dup4\n        /* \"#utility.yul\":5729:5745   */\n      add\n        /* \"#utility.yul\":5723:5746   */\n      mload\n        /* \"#utility.yul\":5793:5796   */\n      dup5\n        /* \"#utility.yul\":5787:5791   */\n      dup3\n        /* \"#utility.yul\":5783:5797   */\n      sub\n        /* \"#utility.yul\":5776:5780   */\n      0x20\n        /* \"#utility.yul\":5771:5774   */\n      dup7\n        /* \"#utility.yul\":5767:5781   */\n      add\n        /* \"#utility.yul\":5760:5798   */\n      mstore\n        /* \"#utility.yul\":5819:5892   */\n      tag_146\n        /* \"#utility.yul\":5887:5891   */\n      dup3\n        /* \"#utility.yul\":5873:5885   */\n      dup3\n        /* \"#utility.yul\":5819:5892   */\n      tag_57\n      jump\t// in\n    tag_146:\n        /* \"#utility.yul\":5811:5892   */\n      swap2\n      pop\n        /* \"#utility.yul\":5665:5903   */\n      pop\n        /* \"#utility.yul\":5990:5994   */\n      0x40\n        /* \"#utility.yul\":5983:5988   */\n      dup4\n        /* \"#utility.yul\":5979:5995   */\n      add\n        /* \"#utility.yul\":5973:5996   */\n      mload\n        /* \"#utility.yul\":6009:6072   */\n      tag_147\n        /* \"#utility.yul\":6066:6070   */\n      0x40\n        /* \"#utility.yul\":6061:6064   */\n      dup7\n        /* \"#utility.yul\":6057:6071   */\n      add\n        /* \"#utility.yul\":6043:6055   */\n      dup3\n        /* \"#utility.yul\":6009:6072   */\n      tag_59\n      jump\t// in\n    tag_147:\n        /* \"#utility.yul\":5913:6082   */\n      pop\n        /* \"#utility.yul\":6164:6168   */\n      0x60\n        /* \"#utility.yul\":6157:6162   */\n      dup4\n        /* \"#utility.yul\":6153:6169   */\n      add\n        /* \"#utility.yul\":6147:6170   */\n      mload\n        /* \"#utility.yul\":6183:6246   */\n      tag_148\n        /* \"#utility.yul\":6240:6244   */\n      0x60\n        /* \"#utility.yul\":6235:6238   */\n      dup7\n        /* \"#utility.yul\":6231:6245   */\n      add\n        /* \"#utility.yul\":6217:6229   */\n      dup3\n        /* \"#utility.yul\":6183:6246   */\n      tag_62\n      jump\t// in\n    tag_148:\n        /* \"#utility.yul\":6092:6256   */\n      pop\n        /* \"#utility.yul\":6273:6277   */\n      dup1\n        /* \"#utility.yul\":6266:6277   */\n      swap2\n      pop\n        /* \"#utility.yul\":5374:6283   */\n      pop\n        /* \"#utility.yul\":5270:6283   */\n      swap3\n      swap2\n      pop\n      pop\n      jump\t// out\n        /* \"#utility.yul\":6289:6525   */\n    tag_64:\n        /* \"#utility.yul\":6398:6408   */\n      0x00\n        /* \"#utility.yul\":6433:6519   */\n      tag_150\n        /* \"#utility.yul\":6515:6518   */\n      dup4\n        /* \"#utility.yul\":6507:6513   */\n      dup4\n        /* \"#utility.yul\":6433:6519   */\n      tag_63\n      jump\t// in\n    tag_150:\n        /* \"#utility.yul\":6419:6519   */\n      swap1\n      pop\n        /* \"#utility.yul\":6289:6525   */\n      swap3\n      swap2\n      pop\n      pop\n      jump\t// out\n        /* \"#utility.yul\":6531:6664   */\n    tag_65:\n        /* \"#utility.yul\":6621:6625   */\n      0x00\n        /* \"#utility.yul\":6653:6657   */\n      0x20\n        /* \"#utility.yul\":6648:6651   */\n      dup3\n        /* \"#utility.yul\":6644:6658   */\n      add\n        /* \"#utility.yul\":6636:6658   */\n      swap1\n      pop\n        /* \"#utility.yul\":6531:6664   */\n      swap2\n      swap1\n      pop\n      jump\t// out\n        /* \"#utility.yul\":6718:7789   */\n    tag_66:\n        /* \"#utility.yul\":6877:6880   */\n      0x00\n        /* \"#utility.yul\":6906:6980   */\n      tag_153\n        /* \"#utility.yul\":6974:6979   */\n      dup3\n        /* \"#utility.yul\":6906:6980   */\n      tag_51\n      jump\t// in\n    tag_153:\n        /* \"#utility.yul\":6996:7102   */\n      tag_154\n        /* \"#utility.yul\":7095:7101   */\n      dup2\n        /* \"#utility.yul\":7090:7093   */\n      dup6\n        /* \"#utility.yul\":6996:7102   */\n      tag_52\n      jump\t// in\n    tag_154:\n        /* \"#utility.yul\":6989:7102   */\n      swap4\n      pop\n        /* \"#utility.yul\":7128:7131   */\n      dup4\n        /* \"#utility.yul\":7173:7177   */\n      0x20\n        /* \"#utility.yul\":7165:7171   */\n      dup3\n        /* \"#utility.yul\":7161:7178   */\n      mul\n        /* \"#utility.yul\":7156:7159   */\n      dup6\n        /* \"#utility.yul\":7152:7179   */\n      add\n        /* \"#utility.yul\":7203:7279   */\n      tag_155\n        /* \"#utility.yul\":7273:7278   */\n      dup6\n        /* \"#utility.yul\":7203:7279   */\n      tag_53\n      jump\t// in\n    tag_155:\n        /* \"#utility.yul\":7302:7309   */\n      dup1\n        /* \"#utility.yul\":7333:7334   */\n      0x00\n        /* \"#utility.yul\":7318:7744   */\n    tag_156:\n        /* \"#utility.yul\":7343:7349   */\n      dup6\n        /* \"#utility.yul\":7340:7341   */\n      dup2\n        /* \"#utility.yul\":7337:7350   */\n      lt\n        /* \"#utility.yul\":7318:7744   */\n      iszero\n      tag_158\n      jumpi\n        /* \"#utility.yul\":7414:7423   */\n      dup5\n        /* \"#utility.yul\":7408:7412   */\n      dup5\n        /* \"#utility.yul\":7404:7424   */\n      sub\n        /* \"#utility.yul\":7399:7402   */\n      dup10\n        /* \"#utility.yul\":7392:7425   */\n      mstore\n        /* \"#utility.yul\":7465:7471   */\n      dup2\n        /* \"#utility.yul\":7459:7472   */\n      mload\n        /* \"#utility.yul\":7493:7597   */\n      tag_159\n        /* \"#utility.yul\":7592:7596   */\n      dup6\n        /* \"#utility.yul\":7577:7590   */\n      dup3\n        /* \"#utility.yul\":7493:7597   */\n      tag_64\n      jump\t// in\n    tag_159:\n        /* \"#utility.yul\":7485:7597   */\n      swap5\n      pop\n        /* \"#utility.yul\":7620:7700   */\n      tag_160\n        /* \"#utility.yul\":7693:7699   */\n      dup4\n        /* \"#utility.yul\":7620:7700   */\n      tag_65\n      jump\t// in\n    tag_160:\n        /* \"#utility.yul\":7610:7700   */\n      swap3\n      pop\n        /* \"#utility.yul\":7729:7733   */\n      0x20\n        /* \"#utility.yul\":7724:7727   */\n      dup11\n        /* \"#utility.yul\":7720:7734   */\n      add\n        /* \"#utility.yul\":7713:7734   */\n      swap10\n      pop\n        /* \"#utility.yul\":7378:7744   */\n      pop\n        /* \"#utility.yul\":7365:7366   */\n      0x01\n        /* \"#utility.yul\":7362:7363   */\n      dup2\n        /* \"#utility.yul\":7358:7367   */\n      add\n        /* \"#utility.yul\":7353:7367   */\n      swap1\n      pop\n        /* \"#utility.yul\":7318:7744   */\n      jump(tag_156)\n    tag_158:\n        /* \"#utility.yul\":7322:7336   */\n      pop\n        /* \"#utility.yul\":7760:7764   */\n      dup3\n        /* \"#utility.yul\":7753:7764   */\n      swap8\n      pop\n        /* \"#utility.yul\":7780:7783   */\n      dup8\n        /* \"#utility.yul\":7773:7783   */\n      swap6\n      pop\n        /* \"#utility.yul\":6882:7789   */\n      pop\n      pop\n      pop\n      pop\n      pop\n        /* \"#utility.yul\":6718:7789   */\n      swap3\n      swap2\n      pop\n      pop\n      jump\t// out\n        /* \"#utility.yul\":7795:8248   */\n    tag_12:\n        /* \"#utility.yul\":7978:7982   */\n      0x00\n        /* \"#utility.yul\":8016:8018   */\n      0x20\n        /* \"#utility.yul\":8005:8014   */\n      dup3\n        /* \"#utility.yul\":8001:8019   */\n      add\n        /* \"#utility.yul\":7993:8019   */\n      swap1\n      pop\n        /* \"#utility.yul\":8065:8074   */\n      dup2\n        /* \"#utility.yul\":8059:8063   */\n      dup2\n        /* \"#utility.yul\":8055:8075   */\n      sub\n        /* \"#utility.yul\":8051:8052   */\n      0x00\n        /* \"#utility.yul\":8040:8049   */\n      dup4\n        /* \"#utility.yul\":8036:8053   */\n      add\n        /* \"#utility.yul\":8029:8076   */\n      mstore\n        /* \"#utility.yul\":8093:8241   */\n      tag_162\n        /* \"#utility.yul\":8236:8240   */\n      dup2\n        /* \"#utility.yul\":8227:8233   */\n      dup5\n        /* \"#utility.yul\":8093:8241   */\n      tag_66\n      jump\t// in\n    tag_162:\n        /* \"#utility.yul\":8085:8241   */\n      swap1\n      pop\n        /* \"#utility.yul\":7795:8248   */\n      swap3\n      swap2\n      pop\n      pop\n      jump\t// out\n        /* \"#utility.yul\":8254:8423   */\n    tag_67:\n        /* \"#utility.yul\":8338:8349   */\n      0x00\n        /* \"#utility.yul\":8372:8378   */\n      dup3\n        /* \"#utility.yul\":8367:8370   */\n      dup3\n        /* \"#utility.yul\":8360:8379   */\n      mstore\n        /* \"#utility.yul\":8412:8416   */\n      0x20\n        /* \"#utility.yul\":8407:8410   */\n      dup3\n        /* \"#utility.yul\":8403:8417   */\n      add\n        /* \"#utility.yul\":8388:8417   */\n      swap1\n      pop\n        /* \"#utility.yul\":8254:8423   */\n      swap3\n      swap2\n      pop\n      pop\n      jump\t// out\n        /* \"#utility.yul\":8429:8610   */\n    tag_68:\n        /* \"#utility.yul\":8569:8602   */\n      0x506c65617365207061792067726561746572207468616e203020657468657200\n        /* \"#utility.yul\":8565:8566   */\n      0x00\n        /* \"#utility.yul\":8557:8563   */\n      dup3\n        /* \"#utility.yul\":8553:8567   */\n      add\n        /* \"#utility.yul\":8546:8603   */\n      mstore\n        /* \"#utility.yul\":8429:8610   */\n      pop\n      jump\t// out\n        /* \"#utility.yul\":8616:8982   */\n    tag_69:\n        /* \"#utility.yul\":8758:8761   */\n      0x00\n        /* \"#utility.yul\":8779:8846   */\n      tag_166\n        /* \"#utility.yul\":8843:8845   */\n      0x1f\n        /* \"#utility.yul\":8838:8841   */\n      dup4\n        /* \"#utility.yul\":8779:8846   */\n      tag_67\n      jump\t// in\n    tag_166:\n        /* \"#utility.yul\":8772:8846   */\n      swap2\n      pop\n        /* \"#utility.yul\":8855:8948   */\n      tag_167\n        /* \"#utility.yul\":8944:8947   */\n      dup3\n        /* \"#utility.yul\":8855:8948   */\n      tag_68\n      jump\t// in\n    tag_167:\n        /* \"#utility.yul\":8973:8975   */\n      0x20\n        /* \"#utility.yul\":8968:8971   */\n      dup3\n        /* \"#utility.yul\":8964:8976   */\n      add\n        /* \"#utility.yul\":8957:8976   */\n      swap1\n      pop\n        /* \"#utility.yul\":8616:8982   */\n      swap2\n      swap1\n      pop\n      jump\t// out\n        /* \"#utility.yul\":8988:9407   */\n    tag_16:\n        /* \"#utility.yul\":9154:9158   */\n      0x00\n        /* \"#utility.yul\":9192:9194   */\n      0x20\n        /* \"#utility.yul\":9181:9190   */\n      dup3\n        /* \"#utility.yul\":9177:9195   */\n      add\n        /* \"#utility.yul\":9169:9195   */\n      swap1\n      pop\n        /* \"#utility.yul\":9241:9250   */\n      dup2\n        /* \"#utility.yul\":9235:9239   */\n      dup2\n        /* \"#utility.yul\":9231:9251   */\n      sub\n        /* \"#utility.yul\":9227:9228   */\n      0x00\n        /* \"#utility.yul\":9216:9225   */\n      dup4\n        /* \"#utility.yul\":9212:9229   */\n      add\n        /* \"#utility.yul\":9205:9252   */\n      mstore\n        /* \"#utility.yul\":9269:9400   */\n      tag_169\n        /* \"#utility.yul\":9395:9399   */\n      dup2\n        /* \"#utility.yul\":9269:9400   */\n      tag_69\n      jump\t// in\n    tag_169:\n        /* \"#utility.yul\":9261:9400   */\n      swap1\n      pop\n        /* \"#utility.yul\":8988:9407   */\n      swap2\n      swap1\n      pop\n      jump\t// out\n        /* \"#utility.yul\":9413:9593   */\n    tag_70:\n        /* \"#utility.yul\":9461:9538   */\n      0x4e487b7100000000000000000000000000000000000000000000000000000000\n        /* \"#utility.yul\":9458:9459   */\n      0x00\n        /* \"#utility.yul\":9451:9539   */\n      mstore\n        /* \"#utility.yul\":9558:9562   */\n      0x22\n        /* \"#utility.yul\":9555:9556   */\n      0x04\n        /* \"#utility.yul\":9548:9563   */\n      mstore\n        /* \"#utility.yul\":9582:9586   */\n      0x24\n        /* \"#utility.yul\":9579:9580   */\n      0x00\n        /* \"#utility.yul\":9572:9587   */\n      revert\n        /* \"#utility.yul\":9599:9919   */\n    tag_28:\n        /* \"#utility.yul\":9643:9649   */\n      0x00\n        /* \"#utility.yul\":9680:9681   */\n      0x02\n        /* \"#utility.yul\":9674:9678   */\n      dup3\n        /* \"#utility.yul\":9670:9682   */\n      div\n        /* \"#utility.yul\":9660:9682   */\n      swap1\n      pop\n        /* \"#utility.yul\":9727:9728   */\n      0x01\n        /* \"#utility.yul\":9721:9725   */\n      dup3\n        /* \"#utility.yul\":9717:9729   */\n      and\n        /* \"#utility.yul\":9748:9766   */\n      dup1\n        /* \"#utility.yul\":9738:9819   */\n      tag_172\n      jumpi\n        /* \"#utility.yul\":9804:9808   */\n      0x7f\n        /* \"#utility.yul\":9796:9802   */\n      dup3\n        /* \"#utility.yul\":9792:9809   */\n      and\n        /* \"#utility.yul\":9782:9809   */\n      swap2\n      pop\n        /* \"#utility.yul\":9738:9819   */\n    tag_172:\n        /* \"#utility.yul\":9866:9868   */\n      0x20\n        /* \"#utility.yul\":9858:9864   */\n      dup3\n        /* \"#utility.yul\":9855:9869   */\n      lt\n        /* \"#utility.yul\":9835:9853   */\n      dup2\n        /* \"#utility.yul\":9832:9870   */\n      sub\n        /* \"#utility.yul\":9829:9913   */\n      tag_173\n      jumpi\n        /* \"#utility.yul\":9885:9903   */\n      tag_174\n      tag_70\n      jump\t// in\n    tag_174:\n        /* \"#utility.yul\":9829:9913   */\n    tag_173:\n        /* \"#utility.yul\":9650:9919   */\n      pop\n        /* \"#utility.yul\":9599:9919   */\n      swap2\n      swap1\n      pop\n      jump\t// out\n        /* \"#utility.yul\":9925:10066   */\n    tag_71:\n        /* \"#utility.yul\":9974:9978   */\n      0x00\n        /* \"#utility.yul\":9997:10000   */\n      dup2\n        /* \"#utility.yul\":9989:10000   */\n      swap1\n      pop\n        /* \"#utility.yul\":10020:10023   */\n      dup2\n        /* \"#utility.yul\":10017:10018   */\n      0x00\n        /* \"#utility.yul\":10010:10024   */\n      mstore\n        /* \"#utility.yul\":10054:10058   */\n      0x20\n        /* \"#utility.yul\":10051:10052   */\n      0x00\n        /* \"#utility.yul\":10041:10059   */\n      keccak256\n        /* \"#utility.yul\":10033:10059   */\n      swap1\n      pop\n        /* \"#utility.yul\":9925:10066   */\n      swap2\n      swap1\n      pop\n      jump\t// out\n        /* \"#utility.yul\":10072:10165   */\n    tag_72:\n        /* \"#utility.yul\":10109:10115   */\n      0x00\n        /* \"#utility.yul\":10156:10158   */\n      0x20\n        /* \"#utility.yul\":10151:10153   */\n      0x1f\n        /* \"#utility.yul\":10144:10149   */\n      dup4\n        /* \"#utility.yul\":10140:10154   */\n      add\n        /* \"#utility.yul\":10136:10159   */\n      div\n        /* \"#utility.yul\":10126:10159   */\n      swap1\n      pop\n        /* \"#utility.yul\":10072:10165   */\n      swap2\n      swap1\n      pop\n      jump\t// out\n        /* \"#utility.yul\":10171:10278   */\n    tag_73:\n        /* \"#utility.yul\":10215:10223   */\n      0x00\n        /* \"#utility.yul\":10265:10270   */\n      dup3\n        /* \"#utility.yul\":10259:10263   */\n      dup3\n        /* \"#utility.yul\":10255:10271   */\n      shl\n        /* \"#utility.yul\":10234:10271   */\n      swap1\n      pop\n        /* \"#utility.yul\":10171:10278   */\n      swap3\n      swap2\n      pop\n      pop\n      jump\t// out\n        /* \"#utility.yul\":10284:10677   */\n    tag_74:\n        /* \"#utility.yul\":10353:10359   */\n      0x00\n        /* \"#utility.yul\":10403:10404   */\n      0x08\n        /* \"#utility.yul\":10391:10401   */\n      dup4\n        /* \"#utility.yul\":10387:10405   */\n      mul\n        /* \"#utility.yul\":10426:10523   */\n      tag_179\n        /* \"#utility.yul\":10456:10522   */\n      0xffffffffffffffffffffffffffffffffffffffffffffffffffffffffffffffff\n        /* \"#utility.yul\":10445:10454   */\n      dup3\n        /* \"#utility.yul\":10426:10523   */\n      tag_73\n      jump\t// in\n    tag_179:\n        /* \"#utility.yul\":10544:10583   */\n      tag_180\n        /* \"#utility.yul\":10574:10582   */\n      dup7\n        /* \"#utility.yul\":10563:10572   */\n      dup4\n        /* \"#utility.yul\":10544:10583   */\n      tag_73\n      jump\t// in\n    tag_180:\n        /* \"#utility.yul\":10532:10583   */\n      swap6\n      pop\n        /* \"#utility.yul\":10616:10620   */\n      dup1\n        /* \"#utility.yul\":10612:10621   */\n      not\n        /* \"#utility.yul\":10605:10610   */\n      dup5\n        /* \"#utility.yul\":10601:10622   */\n      and\n        /* \"#utility.yul\":10592:10622   */\n      swap4\n      pop\n        /* \"#utility.yul\":10665:10669   */\n      dup1\n        /* \"#utility.yul\":10655:10663   */\n      dup7\n        /* \"#utility.yul\":10651:10670   */\n      and\n        /* \"#utility.yul\":10644:10649   */\n      dup5\n        /* \"#utility.yul\":10641:10671   */\n      or\n        /* \"#utility.yul\":10631:10671   */\n      swap3\n      pop\n        /* \"#utility.yul\":10360:10677   */\n      pop\n      pop\n        /* \"#utility.yul\":10284:10677   */\n      swap4\n      swap3\n      pop\n      pop\n      pop\n      jump\t// out\n        /* \"#utility.yul\":10683:10743   */\n    tag_75:\n        /* \"#utility.yul\":10711:10714   */\n      0x00\n        /* \"#utility.yul\":10732:10737   */\n      dup2\n        /* \"#utility.yul\":10725:10737   */\n      swap1\n      pop\n        /* \"#utility.yul\":10683:10743   */\n      swap2\n      swap1\n      pop\n      jump\t// out\n        /* \"#utility.yul\":10749:10891   */\n    tag_76:\n        /* \"#utility.yul\":10799:10808   */\n      0x00\n        /* \"#utility.yul\":10832:10885   */\n      tag_183\n        /* \"#utility.yul\":10850:10884   */\n      tag_184\n        /* \"#utility.yul\":10859:10883   */\n      tag_185\n        /* \"#utility.yul\":10877:10882   */\n      dup5\n        /* \"#utility.yul\":10859:10883   */\n      tag_58\n      jump\t// in\n    tag_185:\n        /* \"#utility.yul\":10850:10884   */\n      tag_75\n      jump\t// in\n    tag_184:\n        /* \"#utility.yul\":10832:10885   */\n      tag_58\n      jump\t// in\n    tag_183:\n        /* \"#utility.yul\":10819:10885   */\n      swap1\n      pop\n        /* \"#utility.yul\":10749:10891   */\n      swap2\n      swap1\n      pop\n      jump\t// out\n        /* \"#utility.yul\":10897:10972   */\n    tag_77:\n        /* \"#utility.yul\":10940:10943   */\n      0x00\n        /* \"#utility.yul\":10961:10966   */\n      dup2\n        /* \"#utility.yul\":10954:10966   */\n      swap1\n      pop\n        /* \"#utility.yul\":10897:10972   */\n      swap2\n      swap1\n      pop\n      jump\t// out\n        /* \"#utility.yul\":10978:11247   */\n    tag_78:\n        /* \"#utility.yul\":11088:11127   */\n      tag_188\n        /* \"#utility.yul\":11119:11126   */\n      dup4\n        /* \"#utility.yul\":11088:11127   */\n      tag_76\n      jump\t// in\n    tag_188:\n        /* \"#utility.yul\":11149:11240   */\n      tag_189\n        /* \"#utility.yul\":11198:11239   */\n      tag_190\n        /* \"#utility.yul\":11222:11238   */\n      dup3\n        /* \"#utility.yul\":11198:11239   */\n      tag_77\n      jump\t// in\n    tag_190:\n        /* \"#utility.yul\":11190:11196   */\n      dup5\n        /* \"#utility.yul\":11183:11187   */\n      dup5\n        /* \"#utility.yul\":11177:11188   */\n      sload\n        /* \"#utility.yul\":11149:11240   */\n      tag_74\n      jump\t// in\n    tag_189:\n        /* \"#utility.yul\":11143:11147   */\n      dup3\n        /* \"#utility.yul\":11136:11241   */\n      sstore\n        /* \"#utility.yul\":11054:11247   */\n      pop\n        /* \"#utility.yul\":10978:11247   */\n      pop\n      pop\n      pop\n      jump\t// out\n        /* \"#utility.yul\":11253:11326   */\n    tag_79:\n        /* \"#utility.yul\":11298:11301   */\n      0x00\n        /* \"#utility.yul\":11319:11320   */\n      0x00\n        /* \"#utility.yul\":11312:11320   */\n      swap1\n      pop\n        /* \"#utility.yul\":11253:11326   */\n      swap1\n      jump\t// out\n        /* \"#utility.yul\":11332:11521   */\n    tag_80:\n        /* \"#utility.yul\":11409:11441   */\n      tag_193\n      tag_79\n      jump\t// in\n    tag_193:\n        /* \"#utility.yul\":11450:11515   */\n      tag_194\n        /* \"#utility.yul\":11508:11514   */\n      dup2\n        /* \"#utility.yul\":11500:11506   */\n      dup5\n        /* \"#utility.yul\":11494:11498   */\n      dup5\n        /* \"#utility.yul\":11450:11515   */\n      tag_78\n      jump\t// in\n    tag_194:\n        /* \"#utility.yul\":11385:11521   */\n      pop\n        /* \"#utility.yul\":11332:11521   */\n      pop\n      pop\n      jump\t// out\n        /* \"#utility.yul\":11527:11713   */\n    tag_81:\n        /* \"#utility.yul\":11587:11707   */\n    tag_196:\n        /* \"#utility.yul\":11604:11607   */\n      dup2\n        /* \"#utility.yul\":11597:11602   */\n      dup2\n        /* \"#utility.yul\":11594:11608   */\n      lt\n        /* \"#utility.yul\":11587:11707   */\n      iszero\n      tag_198\n      jumpi\n        /* \"#utility.yul\":11658:11697   */\n      tag_199\n        /* \"#utility.yul\":11695:11696   */\n      0x00\n        /* \"#utility.yul\":11688:11693   */\n      dup3\n        /* \"#utility.yul\":11658:11697   */\n      tag_80\n      jump\t// in\n    tag_199:\n        /* \"#utility.yul\":11631:11632   */\n      0x01\n        /* \"#utility.yul\":11624:11629   */\n      dup2\n        /* \"#utility.yul\":11620:11633   */\n      add\n        /* \"#utility.yul\":11611:11633   */\n      swap1\n      pop\n        /* \"#utility.yul\":11587:11707   */\n      jump(tag_196)\n    tag_198:\n        /* \"#utility.yul\":11527:11713   */\n      pop\n      pop\n      jump\t// out\n        /* \"#utility.yul\":11719:12262   */\n    tag_82:\n        /* \"#utility.yul\":11820:11822   */\n      0x1f\n        /* \"#utility.yul\":11815:11818   */\n      dup3\n        /* \"#utility.yul\":11812:11823   */\n      gt\n        /* \"#utility.yul\":11809:12255   */\n      iszero\n      tag_201\n      jumpi\n        /* \"#utility.yul\":11854:11892   */\n      tag_202\n        /* \"#utility.yul\":11886:11891   */\n      dup2\n        /* \"#utility.yul\":11854:11892   */\n      tag_71\n      jump\t// in\n    tag_202:\n        /* \"#utility.yul\":11938:11967   */\n      tag_203\n        /* \"#utility.yul\":11956:11966   */\n      dup5\n        /* \"#utility.yul\":11938:11967   */\n      tag_72\n      jump\t// in\n    tag_203:\n        /* \"#utility.yul\":11928:11936   */\n      dup2\n        /* \"#utility.yul\":11924:11968   */\n      add\n        /* \"#utility.yul\":12121:12123   */\n      0x20\n        /* \"#utility.yul\":12109:12119   */\n      dup6\n        /* \"#utility.yul\":12106:12124   */\n      lt\n        /* \"#utility.yul\":12103:12152   */\n      iszero\n      tag_204\n      jumpi\n        /* \"#utility.yul\":12142:12150   */\n      dup2\n        /* \"#utility.yul\":12127:12150   */\n      swap1\n      pop\n        /* \"#utility.yul\":12103:12152   */\n    tag_204:\n        /* \"#utility.yul\":12165:12245   */\n      tag_205\n        /* \"#utility.yul\":12221:12243   */\n      tag_206\n        /* \"#utility.yul\":12239:12242   */\n      dup6\n        /* \"#utility.yul\":12221:12243   */\n      tag_72\n      jump\t// in\n    tag_206:\n        /* \"#utility.yul\":12211:12219   */\n      dup4\n        /* \"#utility.yul\":12207:12244   */\n      add\n        /* \"#utility.yul\":12194:12205   */\n      dup3\n        /* \"#utility.yul\":12165:12245   */\n      tag_81\n      jump\t// in\n    tag_205:\n        /* \"#utility.yul\":11824:12255   */\n      pop\n      pop\n        /* \"#utility.yul\":11809:12255   */\n    tag_201:\n        /* \"#utility.yul\":11719:12262   */\n      pop\n      pop\n      pop\n      jump\t// out\n        /* \"#utility.yul\":12268:12385   */\n    tag_83:\n        /* \"#utility.yul\":12322:12330   */\n      0x00\n        /* \"#utility.yul\":12372:12377   */\n      dup3\n        /* \"#utility.yul\":12366:12370   */\n      dup3\n        /* \"#utility.yul\":12362:12378   */\n      shr\n        /* \"#utility.yul\":12341:12378   */\n      swap1\n      pop\n        /* \"#utility.yul\":12268:12385   */\n      swap3\n      swap2\n      pop\n      pop\n      jump\t// out\n        /* \"#utility.yul\":12391:12560   */\n    tag_84:\n        /* \"#utility.yul\":12435:12441   */\n      0x00\n        /* \"#utility.yul\":12468:12519   */\n      tag_209\n        /* \"#utility.yul\":12516:12517   */\n      0x00\n        /* \"#utility.yul\":12512:12518   */\n      not\n        /* \"#utility.yul\":12504:12509   */\n      dup5\n        /* \"#utility.yul\":12501:12502   */\n      0x08\n        /* \"#utility.yul\":12497:12510   */\n      mul\n        /* \"#utility.yul\":12468:12519   */\n      tag_83\n      jump\t// in\n    tag_209:\n        /* \"#utility.yul\":12464:12520   */\n      not\n        /* \"#utility.yul\":12549:12553   */\n      dup1\n        /* \"#utility.yul\":12543:12547   */\n      dup4\n        /* \"#utility.yul\":12539:12554   */\n      and\n        /* \"#utility.yul\":12529:12554   */\n      swap2\n      pop\n        /* \"#utility.yul\":12442:12560   */\n      pop\n        /* \"#utility.yul\":12391:12560   */\n      swap3\n      swap2\n      pop\n      pop\n      jump\t// out\n        /* \"#utility.yul\":12565:12860   */\n    tag_85:\n        /* \"#utility.yul\":12641:12645   */\n      0x00\n        /* \"#utility.yul\":12787:12816   */\n      tag_211\n        /* \"#utility.yul\":12812:12815   */\n      dup4\n        /* \"#utility.yul\":12806:12810   */\n      dup4\n        /* \"#utility.yul\":12787:12816   */\n      tag_84\n      jump\t// in\n    tag_211:\n        /* \"#utility.yul\":12779:12816   */\n      swap2\n      pop\n        /* \"#utility.yul\":12849:12852   */\n      dup3\n        /* \"#utility.yul\":12846:12847   */\n      0x02\n        /* \"#utility.yul\":12842:12853   */\n      mul\n        /* \"#utility.yul\":12836:12840   */\n      dup3\n        /* \"#utility.yul\":12833:12854   */\n      or\n        /* \"#utility.yul\":12825:12854   */\n      swap1\n      pop\n        /* \"#utility.yul\":12565:12860   */\n      swap3\n      swap2\n      pop\n      pop\n      jump\t// out\n        /* \"#utility.yul\":12865:14260   */\n    tag_21:\n        /* \"#utility.yul\":12982:13019   */\n      tag_213\n        /* \"#utility.yul\":13015:13018   */\n      dup3\n        /* \"#utility.yul\":12982:13019   */\n      tag_54\n      jump\t// in\n    tag_213:\n        /* \"#utility.yul\":13084:13102   */\n      0xffffffffffffffff\n        /* \"#utility.yul\":13076:13082   */\n      dup2\n        /* \"#utility.yul\":13073:13103   */\n      gt\n        /* \"#utility.yul\":13070:13126   */\n      iszero\n      tag_214\n      jumpi\n        /* \"#utility.yul\":13106:13124   */\n      tag_215\n      tag_44\n      jump\t// in\n    tag_215:\n        /* \"#utility.yul\":13070:13126   */\n    tag_214:\n        /* \"#utility.yul\":13150:13188   */\n      tag_216\n        /* \"#utility.yul\":13182:13186   */\n      dup3\n        /* \"#utility.yul\":13176:13187   */\n      sload\n        /* \"#utility.yul\":13150:13188   */\n      tag_28\n      jump\t// in\n    tag_216:\n        /* \"#utility.yul\":13235:13302   */\n      tag_217\n        /* \"#utility.yul\":13295:13301   */\n      dup3\n        /* \"#utility.yul\":13287:13293   */\n      dup3\n        /* \"#utility.yul\":13281:13285   */\n      dup6\n        /* \"#utility.yul\":13235:13302   */\n      tag_82\n      jump\t// in\n    tag_217:\n        /* \"#utility.yul\":13329:13330   */\n      0x00\n        /* \"#utility.yul\":13353:13357   */\n      0x20\n        /* \"#utility.yul\":13340:13357   */\n      swap1\n      pop\n        /* \"#utility.yul\":13385:13387   */\n      0x1f\n        /* \"#utility.yul\":13377:13383   */\n      dup4\n        /* \"#utility.yul\":13374:13388   */\n      gt\n        /* \"#utility.yul\":13402:13403   */\n      0x01\n        /* \"#utility.yul\":13397:14015   */\n      dup2\n      eq\n      tag_219\n      jumpi\n        /* \"#utility.yul\":14059:14060   */\n      0x00\n        /* \"#utility.yul\":14076:14082   */\n      dup5\n        /* \"#utility.yul\":14073:14150   */\n      iszero\n      tag_220\n      jumpi\n        /* \"#utility.yul\":14125:14134   */\n      dup3\n        /* \"#utility.yul\":14120:14123   */\n      dup8\n        /* \"#utility.yul\":14116:14135   */\n      add\n        /* \"#utility.yul\":14110:14136   */\n      mload\n        /* \"#utility.yul\":14101:14136   */\n      swap1\n      pop\n        /* \"#utility.yul\":14073:14150   */\n    tag_220:\n        /* \"#utility.yul\":14176:14243   */\n      tag_221\n        /* \"#utility.yul\":14236:14242   */\n      dup6\n        /* \"#utility.yul\":14229:14234   */\n      dup3\n        /* \"#utility.yul\":14176:14243   */\n      tag_85\n      jump\t// in\n    tag_221:\n        /* \"#utility.yul\":14170:14174   */\n      dup7\n        /* \"#utility.yul\":14163:14244   */\n      sstore\n        /* \"#utility.yul\":14032:14254   */\n      pop\n        /* \"#utility.yul\":13367:14254   */\n      jump(tag_218)\n        /* \"#utility.yul\":13397:14015   */\n    tag_219:\n        /* \"#utility.yul\":13449:13453   */\n      0x1f\n        /* \"#utility.yul\":13445:13454   */\n      not\n        /* \"#utility.yul\":13437:13443   */\n      dup5\n        /* \"#utility.yul\":13433:13455   */\n      and\n        /* \"#utility.yul\":13483:13520   */\n      tag_222\n        /* \"#utility.yul\":13515:13519   */\n      dup7\n        /* \"#utility.yul\":13483:13520   */\n      tag_71\n      jump\t// in\n    tag_222:\n        /* \"#utility.yul\":13542:13543   */\n      0x00\n        /* \"#utility.yul\":13556:13764   */\n    tag_223:\n        /* \"#utility.yul\":13570:13577   */\n      dup3\n        /* \"#utility.yul\":13567:13568   */\n      dup2\n        /* \"#utility.yul\":13564:13578   */\n      lt\n        /* \"#utility.yul\":13556:13764   */\n      iszero\n      tag_225\n      jumpi\n        /* \"#utility.yul\":13649:13658   */\n      dup5\n        /* \"#utility.yul\":13644:13647   */\n      dup10\n        /* \"#utility.yul\":13640:13659   */\n      add\n        /* \"#utility.yul\":13634:13660   */\n      mload\n        /* \"#utility.yul\":13626:13632   */\n      dup3\n        /* \"#utility.yul\":13619:13661   */\n      sstore\n        /* \"#utility.yul\":13700:13701   */\n      0x01\n        /* \"#utility.yul\":13692:13698   */\n      dup3\n        /* \"#utility.yul\":13688:13702   */\n      add\n        /* \"#utility.yul\":13678:13702   */\n      swap2\n      pop\n        /* \"#utility.yul\":13747:13749   */\n      0x20\n        /* \"#utility.yul\":13736:13745   */\n      dup6\n        /* \"#utility.yul\":13732:13750   */\n      add\n        /* \"#utility.yul\":13719:13750   */\n      swap5\n      pop\n        /* \"#utility.yul\":13593:13597   */\n      0x20\n        /* \"#utility.yul\":13590:13591   */\n      dup2\n        /* \"#utility.yul\":13586:13598   */\n      add\n        /* \"#utility.yul\":13581:13598   */\n      swap1\n      pop\n        /* \"#utility.yul\":13556:13764   */\n      jump(tag_223)\n    tag_225:\n        /* \"#utility.yul\":13792:13798   */\n      dup7\n        /* \"#utility.yul\":13783:13790   */\n      dup4\n        /* \"#utility.yul\":13780:13799   */\n      lt\n        /* \"#utility.yul\":13777:13956   */\n      iszero\n      tag_226\n      jumpi\n        /* \"#utility.yul\":13850:13859   */\n      dup5\n        /* \"#utility.yul\":13845:13848   */\n      dup10\n        /* \"#utility.yul\":13841:13860   */\n      add\n        /* \"#utility.yul\":13835:13861   */\n      mload\n        /* \"#utility.yul\":13893:13941   */\n      tag_227\n        /* \"#utility.yul\":13935:13939   */\n      0x1f\n        /* \"#utility.yul\":13927:13933   */\n      dup10\n        /* \"#utility.yul\":13923:13940   */\n      and\n        /* \"#utility.yul\":13912:13921   */\n      dup3\n        /* \"#utility.yul\":13893:13941   */\n      tag_84\n      jump\t// in\n    tag_227:\n        /* \"#utility.yul\":13885:13891   */\n      dup4\n        /* \"#utility.yul\":13878:13942   */\n      sstore\n        /* \"#utility.yul\":13800:13956   */\n      pop\n        /* \"#utility.yul\":13777:13956   */\n    tag_226:\n        /* \"#utility.yul\":14002:14003   */\n      0x01\n        /* \"#utility.yul\":13998:13999   */\n      0x02\n        /* \"#utility.yul\":13990:13996   */\n      dup9\n        /* \"#utility.yul\":13986:14000   */\n      mul\n        /* \"#utility.yul\":13982:14004   */\n      add\n        /* \"#utility.yul\":13976:13980   */\n      dup9\n        /* \"#utility.yul\":13969:14005   */\n      sstore\n        /* \"#utility.yul\":13404:14015   */\n      pop\n      pop\n      pop\n        /* \"#utility.yul\":13367:14254   */\n    tag_218:\n      pop\n        /* \"#utility.yul\":12957:14260   */\n      pop\n      pop\n      pop\n        /* \"#utility.yul\":12865:14260   */\n      pop\n      pop\n      jump\t// out\n\n    auxdata: 0xa264697066735822122034c0c139ecb996de7aa4f6281b97d24c5dbdcbfce272ea3ba4dec13f3b7f7db064736f6c634300081e0033\n}\n",
				"bytecode": {
					"linkReferences": {},
					"object": "6080604052348015600e575f5ffd5b503360015f6101000a81548173ffffffffffffffffffffffffffffffffffffffff021916908373ffffffffffffffffffffffffffffffffffffffff160217905550610b068061005c5f395ff3fe608060405260043610610028575f3560e01c80636a13d8591461002c578063865c517214610048575b5f5ffd5b6100466004803603810190610041919061051d565b610072565b005b348015610053575f5ffd5b5061005c6101f7565b604051610069919061076c565b60405180910390f35b5f34116100b4576040517f08c379a00000000000000000000000000000000000000000000000000000000081526004016100ab906107e6565b60405180910390fd5b60015f9054906101000a900473ffffffffffffffffffffffffffffffffffffffff1673ffffffffffffffffffffffffffffffffffffffff166108fc3490811502906040515f60405180830381858888f19350505050158015610118573d5f5f3e3d5ffd5b505f60405180608001604052808481526020018381526020014281526020013373ffffffffffffffffffffffffffffffffffffffff16815250908060018154018082558091505060019003905f5260205f2090600402015f909190919091505f820151815f01908161018a9190610a01565b5060208201518160010190816101a09190610a01565b50604082015181600201556060820151816003015f6101000a81548173ffffffffffffffffffffffffffffffffffffffff021916908373ffffffffffffffffffffffffffffffffffffffff16021790555050505050565b60605f805480602002602001604051908101604052809291908181526020015f905b828210156103c7578382905f5260205f2090600402016040518060800160405290815f8201805461024990610831565b80601f016020809104026020016040519081016040528092919081815260200182805461027590610831565b80156102c05780601f10610297576101008083540402835291602001916102c0565b820191905f5260205f20905b8154815290600101906020018083116102a357829003601f168201915b505050505081526020016001820180546102d990610831565b80601f016020809104026020016040519081016040528092919081815260200182805461030590610831565b80156103505780601f1061032757610100808354040283529160200191610350565b820191905f5260205f20905b81548152906001019060200180831161033357829003601f168201915b5050505050815260200160028201548152602001600382015f9054906101000a900473ffffffffffffffffffffffffffffffffffffffff1673ffffffffffffffffffffffffffffffffffffffff1673ffffffffffffffffffffffffffffffffffffffff168152505081526020019060010190610219565b50505050905090565b5f604051905090565b5f5ffd5b5f5ffd5b5f5ffd5b5f5ffd5b5f601f19601f8301169050919050565b7f4e487b71000000000000000000000000000000000000000000000000000000005f52604160045260245ffd5b61042f826103e9565b810181811067ffffffffffffffff8211171561044e5761044d6103f9565b5b80604052505050565b5f6104606103d0565b905061046c8282610426565b919050565b5f67ffffffffffffffff82111561048b5761048a6103f9565b5b610494826103e9565b9050602081019050919050565b828183375f83830152505050565b5f6104c16104bc84610471565b610457565b9050828152602081018484840111156104dd576104dc6103e5565b5b6104e88482856104a1565b509392505050565b5f82601f830112610504576105036103e1565b5b81356105148482602086016104af565b91505092915050565b5f5f60408385031215610533576105326103d9565b5b5f83013567ffffffffffffffff8111156105505761054f6103dd565b5b61055c858286016104f0565b925050602083013567ffffffffffffffff81111561057d5761057c6103dd565b5b610589858286016104f0565b9150509250929050565b5f81519050919050565b5f82825260208201905092915050565b5f819050602082019050919050565b5f81519050919050565b5f82825260208201905092915050565b8281835e5f83830152505050565b5f6105ee826105bc565b6105f881856105c6565b93506106088185602086016105d6565b610611816103e9565b840191505092915050565b5f819050919050565b61062e8161061c565b82525050565b5f73ffffffffffffffffffffffffffffffffffffffff82169050919050565b5f61065d82610634565b9050919050565b61066d81610653565b82525050565b5f608083015f8301518482035f86015261068d82826105e4565b915050602083015184820360208601526106a782826105e4565b91505060408301516106bc6040860182610625565b5060608301516106cf6060860182610664565b508091505092915050565b5f6106e58383610673565b905092915050565b5f602082019050919050565b5f61070382610593565b61070d818561059d565b93508360208202850161071f856105ad565b805f5b8581101561075a578484038952815161073b85826106da565b9450610746836106ed565b925060208a01995050600181019050610722565b50829750879550505050505092915050565b5f6020820190508181035f83015261078481846106f9565b905092915050565b5f82825260208201905092915050565b7f506c65617365207061792067726561746572207468616e2030206574686572005f82015250565b5f6107d0601f8361078c565b91506107db8261079c565b602082019050919050565b5f6020820190508181035f8301526107fd816107c4565b9050919050565b7f4e487b71000000000000000000000000000000000000000000000000000000005f52602260045260245ffd5b5f600282049050600182168061084857607f821691505b60208210810361085b5761085a610804565b5b50919050565b5f819050815f5260205f209050919050565b5f6020601f8301049050919050565b5f82821b905092915050565b5f600883026108bd7fffffffffffffffffffffffffffffffffffffffffffffffffffffffffffffffff82610882565b6108c78683610882565b95508019841693508086168417925050509392505050565b5f819050919050565b5f6109026108fd6108f88461061c565b6108df565b61061c565b9050919050565b5f819050919050565b61091b836108e8565b61092f61092782610909565b84845461088e565b825550505050565b5f5f905090565b610946610937565b610951818484610912565b505050565b5b81811015610974576109695f8261093e565b600181019050610957565b5050565b601f8211156109b95761098a81610861565b61099384610873565b810160208510156109a2578190505b6109b66109ae85610873565b830182610956565b50505b505050565b5f82821c905092915050565b5f6109d95f19846008026109be565b1980831691505092915050565b5f6109f183836109ca565b9150826002028217905092915050565b610a0a826105bc565b67ffffffffffffffff811115610a2357610a226103f9565b5b610a2d8254610831565b610a38828285610978565b5f60209050601f831160018114610a69575f8415610a57578287015190505b610a6185826109e6565b865550610ac8565b601f198416610a7786610861565b5f5b82811015610a9e57848901518255600182019150602085019450602081019050610a79565b86831015610abb5784890151610ab7601f8916826109ca565b8355505b6001600288020188555050505b50505050505056fea264697066735822122034c0c139ecb996de7aa4f6281b97d24c5dbdcbfce272ea3ba4dec13f3b7f7db064736f6c634300081e0033",
					"opcodes": "PUSH1 0x80 PUSH1 0x40 MSTORE CALLVALUE DUP1 ISZERO PUSH1 0xE JUMPI PUSH0 PUSH0 REVERT JUMPDEST POP CALLER PUSH1 0x1 PUSH0 PUSH2 0x100 EXP DUP2 SLOAD DUP2 PUSH20 0xFFFFFFFFFFFFFFFFFFFFFFFFFFFFFFFFFFFFFFFF MUL NOT AND SWAP1 DUP4 PUSH20 0xFFFFFFFFFFFFFFFFFFFFFFFFFFFFFFFFFFFFFFFF AND MUL OR SWAP1 SSTORE POP PUSH2 0xB06 DUP1 PUSH2 0x5C PUSH0 CODECOPY PUSH0 RETURN INVALID PUSH1 0x80 PUSH1 0x40 MSTORE PUSH1 0x4 CALLDATASIZE LT PUSH2 0x28 JUMPI PUSH0 CALLDATALOAD PUSH1 0xE0 SHR DUP1 PUSH4 0x6A13D859 EQ PUSH2 0x2C JUMPI DUP1 PUSH4 0x865C5172 EQ PUSH2 0x48 JUMPI JUMPDEST PUSH0 PUSH0 REVERT JUMPDEST PUSH2 0x46 PUSH1 0x4 DUP1 CALLDATASIZE SUB DUP2 ADD SWAP1 PUSH2 0x41 SWAP2 SWAP1 PUSH2 0x51D JUMP JUMPDEST PUSH2 0x72 JUMP JUMPDEST STOP JUMPDEST CALLVALUE DUP1 ISZERO PUSH2 0x53 JUMPI PUSH0 PUSH0 REVERT JUMPDEST POP PUSH2 0x5C PUSH2 0x1F7 JUMP JUMPDEST PUSH1 0x40 MLOAD PUSH2 0x69 SWAP2 SWAP1 PUSH2 0x76C JUMP JUMPDEST PUSH1 0x40 MLOAD DUP1 SWAP2 SUB SWAP1 RETURN JUMPDEST PUSH0 CALLVALUE GT PUSH2 0xB4 JUMPI PUSH1 0x40 MLOAD PUSH32 0x8C379A000000000000000000000000000000000000000000000000000000000 DUP2 MSTORE PUSH1 0x4 ADD PUSH2 0xAB SWAP1 PUSH2 0x7E6 JUMP JUMPDEST PUSH1 0x40 MLOAD DUP1 SWAP2 SUB SWAP1 REVERT JUMPDEST PUSH1 0x1 PUSH0 SWAP1 SLOAD SWAP1 PUSH2 0x100 EXP SWAP1 DIV PUSH20 0xFFFFFFFFFFFFFFFFFFFFFFFFFFFFFFFFFFFFFFFF AND PUSH20 0xFFFFFFFFFFFFFFFFFFFFFFFFFFFFFFFFFFFFFFFF AND PUSH2 0x8FC CALLVALUE SWAP1 DUP2 ISZERO MUL SWAP1 PUSH1 0x40 MLOAD PUSH0 PUSH1 0x40 MLOAD DUP1 DUP4 SUB DUP2 DUP6 DUP9 DUP9 CALL SWAP4 POP POP POP POP ISZERO DUP1 ISZERO PUSH2 0x118 JUMPI RETURNDATASIZE PUSH0 PUSH0 RETURNDATACOPY RETURNDATASIZE PUSH0 REVERT JUMPDEST POP PUSH0 PUSH1 0x40 MLOAD DUP1 PUSH1 0x80 ADD PUSH1 0x40 MSTORE DUP1 DUP5 DUP2 MSTORE PUSH1 0x20 ADD DUP4 DUP2 MSTORE PUSH1 0x20 ADD TIMESTAMP DUP2 MSTORE PUSH1 0x20 ADD CALLER PUSH20 0xFFFFFFFFFFFFFFFFFFFFFFFFFFFFFFFFFFFFFFFF AND DUP2 MSTORE POP SWAP1 DUP1 PUSH1 0x1 DUP2 SLOAD ADD DUP1 DUP3 SSTORE DUP1 SWAP2 POP POP PUSH1 0x1 SWAP1 SUB SWAP1 PUSH0 MSTORE PUSH1 0x20 PUSH0 KECCAK256 SWAP1 PUSH1 0x4 MUL ADD PUSH0 SWAP1 SWAP2 SWAP1 SWAP2 SWAP1 SWAP2 POP PUSH0 DUP3 ADD MLOAD DUP2 PUSH0 ADD SWAP1 DUP2 PUSH2 0x18A SWAP2 SWAP1 PUSH2 0xA01 JUMP JUMPDEST POP PUSH1 0x20 DUP3 ADD MLOAD DUP2 PUSH1 0x1 ADD SWAP1 DUP2 PUSH2 0x1A0 SWAP2 SWAP1 PUSH2 0xA01 JUMP JUMPDEST POP PUSH1 0x40 DUP3 ADD MLOAD DUP2 PUSH1 0x2 ADD SSTORE PUSH1 0x60 DUP3 ADD MLOAD DUP2 PUSH1 0x3 ADD PUSH0 PUSH2 0x100 EXP DUP2 SLOAD DUP2 PUSH20 0xFFFFFFFFFFFFFFFFFFFFFFFFFFFFFFFFFFFFFFFF MUL NOT AND SWAP1 DUP4 PUSH20 0xFFFFFFFFFFFFFFFFFFFFFFFFFFFFFFFFFFFFFFFF AND MUL OR SWAP1 SSTORE POP POP POP POP POP JUMP JUMPDEST PUSH1 0x60 PUSH0 DUP1 SLOAD DUP1 PUSH1 0x20 MUL PUSH1 0x20 ADD PUSH1 0x40 MLOAD SWAP1 DUP2 ADD PUSH1 0x40 MSTORE DUP1 SWAP3 SWAP2 SWAP1 DUP2 DUP2 MSTORE PUSH1 0x20 ADD PUSH0 SWAP1 JUMPDEST DUP3 DUP3 LT ISZERO PUSH2 0x3C7 JUMPI DUP4 DUP3 SWAP1 PUSH0 MSTORE PUSH1 0x20 PUSH0 KECCAK256 SWAP1 PUSH1 0x4 MUL ADD PUSH1 0x40 MLOAD DUP1 PUSH1 0x80 ADD PUSH1 0x40 MSTORE SWAP1 DUP2 PUSH0 DUP3 ADD DUP1 SLOAD PUSH2 0x249 SWAP1 PUSH2 0x831 JUMP JUMPDEST DUP1 PUSH1 0x1F ADD PUSH1 0x20 DUP1 SWAP2 DIV MUL PUSH1 0x20 ADD PUSH1 0x40 MLOAD SWAP1 DUP2 ADD PUSH1 0x40 MSTORE DUP1 SWAP3 SWAP2 SWAP1 DUP2 DUP2 MSTORE PUSH1 0x20 ADD DUP3 DUP1 SLOAD PUSH2 0x275 SWAP1 PUSH2 0x831 JUMP JUMPDEST DUP1 ISZERO PUSH2 0x2C0 JUMPI DUP1 PUSH1 0x1F LT PUSH2 0x297 JUMPI PUSH2 0x100 DUP1 DUP4 SLOAD DIV MUL DUP4 MSTORE SWAP2 PUSH1 0x20 ADD SWAP2 PUSH2 0x2C0 JUMP JUMPDEST DUP3 ADD SWAP2 SWAP1 PUSH0 MSTORE PUSH1 0x20 PUSH0 KECCAK256 SWAP1 JUMPDEST DUP2 SLOAD DUP2 MSTORE SWAP1 PUSH1 0x1 ADD SWAP1 PUSH1 0x20 ADD DUP1 DUP4 GT PUSH2 0x2A3 JUMPI DUP3 SWAP1 SUB PUSH1 0x1F AND DUP3 ADD SWAP2 JUMPDEST POP POP POP POP POP DUP2 MSTORE PUSH1 0x20 ADD PUSH1 0x1 DUP3 ADD DUP1 SLOAD PUSH2 0x2D9 SWAP1 PUSH2 0x831 JUMP JUMPDEST DUP1 PUSH1 0x1F ADD PUSH1 0x20 DUP1 SWAP2 DIV MUL PUSH1 0x20 ADD PUSH1 0x40 MLOAD SWAP1 DUP2 ADD PUSH1 0x40 MSTORE DUP1 SWAP3 SWAP2 SWAP1 DUP2 DUP2 MSTORE PUSH1 0x20 ADD DUP3 DUP1 SLOAD PUSH2 0x305 SWAP1 PUSH2 0x831 JUMP JUMPDEST DUP1 ISZERO PUSH2 0x350 JUMPI DUP1 PUSH1 0x1F LT PUSH2 0x327 JUMPI PUSH2 0x100 DUP1 DUP4 SLOAD DIV MUL DUP4 MSTORE SWAP2 PUSH1 0x20 ADD SWAP2 PUSH2 0x350 JUMP JUMPDEST DUP3 ADD SWAP2 SWAP1 PUSH0 MSTORE PUSH1 0x20 PUSH0 KECCAK256 SWAP1 JUMPDEST DUP2 SLOAD DUP2 MSTORE SWAP1 PUSH1 0x1 ADD SWAP1 PUSH1 0x20 ADD DUP1 DUP4 GT PUSH2 0x333 JUMPI DUP3 SWAP1 SUB PUSH1 0x1F AND DUP3 ADD SWAP2 JUMPDEST POP POP POP POP POP DUP2 MSTORE PUSH1 0x20 ADD PUSH1 0x2 DUP3 ADD SLOAD DUP2 MSTORE PUSH1 0x20 ADD PUSH1 0x3 DUP3 ADD PUSH0 SWAP1 SLOAD SWAP1 PUSH2 0x100 EXP SWAP1 DIV PUSH20 0xFFFFFFFFFFFFFFFFFFFFFFFFFFFFFFFFFFFFFFFF AND PUSH20 0xFFFFFFFFFFFFFFFFFFFFFFFFFFFFFFFFFFFFFFFF AND PUSH20 0xFFFFFFFFFFFFFFFFFFFFFFFFFFFFFFFFFFFFFFFF AND DUP2 MSTORE POP POP DUP2 MSTORE PUSH1 0x20 ADD SWAP1 PUSH1 0x1 ADD SWAP1 PUSH2 0x219 JUMP JUMPDEST POP POP POP POP SWAP1 POP SWAP1 JUMP JUMPDEST PUSH0 PUSH1 0x40 MLOAD SWAP1 POP SWAP1 JUMP JUMPDEST PUSH0 PUSH0 REVERT JUMPDEST PUSH0 PUSH0 REVERT JUMPDEST PUSH0 PUSH0 REVERT JUMPDEST PUSH0 PUSH0 REVERT JUMPDEST PUSH0 PUSH1 0x1F NOT PUSH1 0x1F DUP4 ADD AND SWAP1 POP SWAP2 SWAP1 POP JUMP JUMPDEST PUSH32 0x4E487B7100000000000000000000000000000000000000000000000000000000 PUSH0 MSTORE PUSH1 0x41 PUSH1 0x4 MSTORE PUSH1 0x24 PUSH0 REVERT JUMPDEST PUSH2 0x42F DUP3 PUSH2 0x3E9 JUMP JUMPDEST DUP2 ADD DUP2 DUP2 LT PUSH8 0xFFFFFFFFFFFFFFFF DUP3 GT OR ISZERO PUSH2 0x44E JUMPI PUSH2 0x44D PUSH2 0x3F9 JUMP JUMPDEST JUMPDEST DUP1 PUSH1 0x40 MSTORE POP POP POP JUMP JUMPDEST PUSH0 PUSH2 0x460 PUSH2 0x3D0 JUMP JUMPDEST SWAP1 POP PUSH2 0x46C DUP3 DUP3 PUSH2 0x426 JUMP JUMPDEST SWAP2 SWAP1 POP JUMP JUMPDEST PUSH0 PUSH8 0xFFFFFFFFFFFFFFFF DUP3 GT ISZERO PUSH2 0x48B JUMPI PUSH2 0x48A PUSH2 0x3F9 JUMP JUMPDEST JUMPDEST PUSH2 0x494 DUP3 PUSH2 0x3E9 JUMP JUMPDEST SWAP1 POP PUSH1 0x20 DUP2 ADD SWAP1 POP SWAP2 SWAP1 POP JUMP JUMPDEST DUP3 DUP2 DUP4 CALLDATACOPY PUSH0 DUP4 DUP4 ADD MSTORE POP POP POP JUMP JUMPDEST PUSH0 PUSH2 0x4C1 PUSH2 0x4BC DUP5 PUSH2 0x471 JUMP JUMPDEST PUSH2 0x457 JUMP JUMPDEST SWAP1 POP DUP3 DUP2 MSTORE PUSH1 0x20 DUP2 ADD DUP5 DUP5 DUP5 ADD GT ISZERO PUSH2 0x4DD JUMPI PUSH2 0x4DC PUSH2 0x3E5 JUMP JUMPDEST JUMPDEST PUSH2 0x4E8 DUP5 DUP3 DUP6 PUSH2 0x4A1 JUMP JUMPDEST POP SWAP4 SWAP3 POP POP POP JUMP JUMPDEST PUSH0 DUP3 PUSH1 0x1F DUP4 ADD SLT PUSH2 0x504 JUMPI PUSH2 0x503 PUSH2 0x3E1 JUMP JUMPDEST JUMPDEST DUP2 CALLDATALOAD PUSH2 0x514 DUP5 DUP3 PUSH1 0x20 DUP7 ADD PUSH2 0x4AF JUMP JUMPDEST SWAP2 POP POP SWAP3 SWAP2 POP POP JUMP JUMPDEST PUSH0 PUSH0 PUSH1 0x40 DUP4 DUP6 SUB SLT ISZERO PUSH2 0x533 JUMPI PUSH2 0x532 PUSH2 0x3D9 JUMP JUMPDEST JUMPDEST PUSH0 DUP4 ADD CALLDATALOAD PUSH8 0xFFFFFFFFFFFFFFFF DUP2 GT ISZERO PUSH2 0x550 JUMPI PUSH2 0x54F PUSH2 0x3DD JUMP JUMPDEST JUMPDEST PUSH2 0x55C DUP6 DUP3 DUP7 ADD PUSH2 0x4F0 JUMP JUMPDEST SWAP3 POP POP PUSH1 0x20 DUP4 ADD CALLDATALOAD PUSH8 0xFFFFFFFFFFFFFFFF DUP2 GT ISZERO PUSH2 0x57D JUMPI PUSH2 0x57C PUSH2 0x3DD JUMP JUMPDEST JUMPDEST PUSH2 0x589 DUP6 DUP3 DUP7 ADD PUSH2 0x4F0 JUMP JUMPDEST SWAP2 POP POP SWAP3 POP SWAP3 SWAP1 POP JUMP JUMPDEST PUSH0 DUP2 MLOAD SWAP1 POP SWAP2 SWAP1 POP JUMP JUMPDEST PUSH0 DUP3 DUP3 MSTORE PUSH1 0x20 DUP3 ADD SWAP1 POP SWAP3 SWAP2 POP POP JUMP JUMPDEST PUSH0 DUP2 SWAP1 POP PUSH1 0x20 DUP3 ADD SWAP1 POP SWAP2 SWAP1 POP JUMP JUMPDEST PUSH0 DUP2 MLOAD SWAP1 POP SWAP2 SWAP1 POP JUMP JUMPDEST PUSH0 DUP3 DUP3 MSTORE PUSH1 0x20 DUP3 ADD SWAP1 POP SWAP3 SWAP2 POP POP JUMP JUMPDEST DUP3 DUP2 DUP4 MCOPY PUSH0 DUP4 DUP4 ADD MSTORE POP POP POP JUMP JUMPDEST PUSH0 PUSH2 0x5EE DUP3 PUSH2 0x5BC JUMP JUMPDEST PUSH2 0x5F8 DUP2 DUP6 PUSH2 0x5C6 JUMP JUMPDEST SWAP4 POP PUSH2 0x608 DUP2 DUP6 PUSH1 0x20 DUP7 ADD PUSH2 0x5D6 JUMP JUMPDEST PUSH2 0x611 DUP2 PUSH2 0x3E9 JUMP JUMPDEST DUP5 ADD SWAP2 POP POP SWAP3 SWAP2 POP POP JUMP JUMPDEST PUSH0 DUP2 SWAP1 POP SWAP2 SWAP1 POP JUMP JUMPDEST PUSH2 0x62E DUP2 PUSH2 0x61C JUMP JUMPDEST DUP3 MSTORE POP POP JUMP JUMPDEST PUSH0 PUSH20 0xFFFFFFFFFFFFFFFFFFFFFFFFFFFFFFFFFFFFFFFF DUP3 AND SWAP1 POP SWAP2 SWAP1 POP JUMP JUMPDEST PUSH0 PUSH2 0x65D DUP3 PUSH2 0x634 JUMP JUMPDEST SWAP1 POP SWAP2 SWAP1 POP JUMP JUMPDEST PUSH2 0x66D DUP2 PUSH2 0x653 JUMP JUMPDEST DUP3 MSTORE POP POP JUMP JUMPDEST PUSH0 PUSH1 0x80 DUP4 ADD PUSH0 DUP4 ADD MLOAD DUP5 DUP3 SUB PUSH0 DUP7 ADD MSTORE PUSH2 0x68D DUP3 DUP3 PUSH2 0x5E4 JUMP JUMPDEST SWAP2 POP POP PUSH1 0x20 DUP4 ADD MLOAD DUP5 DUP3 SUB PUSH1 0x20 DUP7 ADD MSTORE PUSH2 0x6A7 DUP3 DUP3 PUSH2 0x5E4 JUMP JUMPDEST SWAP2 POP POP PUSH1 0x40 DUP4 ADD MLOAD PUSH2 0x6BC PUSH1 0x40 DUP7 ADD DUP3 PUSH2 0x625 JUMP JUMPDEST POP PUSH1 0x60 DUP4 ADD MLOAD PUSH2 0x6CF PUSH1 0x60 DUP7 ADD DUP3 PUSH2 0x664 JUMP JUMPDEST POP DUP1 SWAP2 POP POP SWAP3 SWAP2 POP POP JUMP JUMPDEST PUSH0 PUSH2 0x6E5 DUP4 DUP4 PUSH2 0x673 JUMP JUMPDEST SWAP1 POP SWAP3 SWAP2 POP POP JUMP JUMPDEST PUSH0 PUSH1 0x20 DUP3 ADD SWAP1 POP SWAP2 SWAP1 POP JUMP JUMPDEST PUSH0 PUSH2 0x703 DUP3 PUSH2 0x593 JUMP JUMPDEST PUSH2 0x70D DUP2 DUP6 PUSH2 0x59D JUMP JUMPDEST SWAP4 POP DUP4 PUSH1 0x20 DUP3 MUL DUP6 ADD PUSH2 0x71F DUP6 PUSH2 0x5AD JUMP JUMPDEST DUP1 PUSH0 JUMPDEST DUP6 DUP2 LT ISZERO PUSH2 0x75A JUMPI DUP5 DUP5 SUB DUP10 MSTORE DUP2 MLOAD PUSH2 0x73B DUP6 DUP3 PUSH2 0x6DA JUMP JUMPDEST SWAP5 POP PUSH2 0x746 DUP4 PUSH2 0x6ED JUMP JUMPDEST SWAP3 POP PUSH1 0x20 DUP11 ADD SWAP10 POP POP PUSH1 0x1 DUP2 ADD SWAP1 POP PUSH2 0x722 JUMP JUMPDEST POP DUP3 SWAP8 POP DUP8 SWAP6 POP POP POP POP POP POP SWAP3 SWAP2 POP POP JUMP JUMPDEST PUSH0 PUSH1 0x20 DUP3 ADD SWAP1 POP DUP2 DUP2 SUB PUSH0 DUP4 ADD MSTORE PUSH2 0x784 DUP2 DUP5 PUSH2 0x6F9 JUMP JUMPDEST SWAP1 POP SWAP3 SWAP2 POP POP JUMP JUMPDEST PUSH0 DUP3 DUP3 MSTORE PUSH1 0x20 DUP3 ADD SWAP1 POP SWAP3 SWAP2 POP POP JUMP JUMPDEST PUSH32 0x506C65617365207061792067726561746572207468616E203020657468657200 PUSH0 DUP3 ADD MSTORE POP JUMP JUMPDEST PUSH0 PUSH2 0x7D0 PUSH1 0x1F DUP4 PUSH2 0x78C JUMP JUMPDEST SWAP2 POP PUSH2 0x7DB DUP3 PUSH2 0x79C JUMP JUMPDEST PUSH1 0x20 DUP3 ADD SWAP1 POP SWAP2 SWAP1 POP JUMP JUMPDEST PUSH0 PUSH1 0x20 DUP3 ADD SWAP1 POP DUP2 DUP2 SUB PUSH0 DUP4 ADD MSTORE PUSH2 0x7FD DUP2 PUSH2 0x7C4 JUMP JUMPDEST SWAP1 POP SWAP2 SWAP1 POP JUMP JUMPDEST PUSH32 0x4E487B7100000000000000000000000000000000000000000000000000000000 PUSH0 MSTORE PUSH1 0x22 PUSH1 0x4 MSTORE PUSH1 0x24 PUSH0 REVERT JUMPDEST PUSH0 PUSH1 0x2 DUP3 DIV SWAP1 POP PUSH1 0x1 DUP3 AND DUP1 PUSH2 0x848 JUMPI PUSH1 0x7F DUP3 AND SWAP2 POP JUMPDEST PUSH1 0x20 DUP3 LT DUP2 SUB PUSH2 0x85B JUMPI PUSH2 0x85A PUSH2 0x804 JUMP JUMPDEST JUMPDEST POP SWAP2 SWAP1 POP JUMP JUMPDEST PUSH0 DUP2 SWAP1 POP DUP2 PUSH0 MSTORE PUSH1 0x20 PUSH0 KECCAK256 SWAP1 POP SWAP2 SWAP1 POP JUMP JUMPDEST PUSH0 PUSH1 0x20 PUSH1 0x1F DUP4 ADD DIV SWAP1 POP SWAP2 SWAP1 POP JUMP JUMPDEST PUSH0 DUP3 DUP3 SHL SWAP1 POP SWAP3 SWAP2 POP POP JUMP JUMPDEST PUSH0 PUSH1 0x8 DUP4 MUL PUSH2 0x8BD PUSH32 0xFFFFFFFFFFFFFFFFFFFFFFFFFFFFFFFFFFFFFFFFFFFFFFFFFFFFFFFFFFFFFFFF DUP3 PUSH2 0x882 JUMP JUMPDEST PUSH2 0x8C7 DUP7 DUP4 PUSH2 0x882 JUMP JUMPDEST SWAP6 POP DUP1 NOT DUP5 AND SWAP4 POP DUP1 DUP7 AND DUP5 OR SWAP3 POP POP POP SWAP4 SWAP3 POP POP POP JUMP JUMPDEST PUSH0 DUP2 SWAP1 POP SWAP2 SWAP1 POP JUMP JUMPDEST PUSH0 PUSH2 0x902 PUSH2 0x8FD PUSH2 0x8F8 DUP5 PUSH2 0x61C JUMP JUMPDEST PUSH2 0x8DF JUMP JUMPDEST PUSH2 0x61C JUMP JUMPDEST SWAP1 POP SWAP2 SWAP1 POP JUMP JUMPDEST PUSH0 DUP2 SWAP1 POP SWAP2 SWAP1 POP JUMP JUMPDEST PUSH2 0x91B DUP4 PUSH2 0x8E8 JUMP JUMPDEST PUSH2 0x92F PUSH2 0x927 DUP3 PUSH2 0x909 JUMP JUMPDEST DUP5 DUP5 SLOAD PUSH2 0x88E JUMP JUMPDEST DUP3 SSTORE POP POP POP POP JUMP JUMPDEST PUSH0 PUSH0 SWAP1 POP SWAP1 JUMP JUMPDEST PUSH2 0x946 PUSH2 0x937 JUMP JUMPDEST PUSH2 0x951 DUP2 DUP5 DUP5 PUSH2 0x912 JUMP JUMPDEST POP POP POP JUMP JUMPDEST JUMPDEST DUP2 DUP2 LT ISZERO PUSH2 0x974 JUMPI PUSH2 0x969 PUSH0 DUP3 PUSH2 0x93E JUMP JUMPDEST PUSH1 0x1 DUP2 ADD SWAP1 POP PUSH2 0x957 JUMP JUMPDEST POP POP JUMP JUMPDEST PUSH1 0x1F DUP3 GT ISZERO PUSH2 0x9B9 JUMPI PUSH2 0x98A DUP2 PUSH2 0x861 JUMP JUMPDEST PUSH2 0x993 DUP5 PUSH2 0x873 JUMP JUMPDEST DUP2 ADD PUSH1 0x20 DUP6 LT ISZERO PUSH2 0x9A2 JUMPI DUP2 SWAP1 POP JUMPDEST PUSH2 0x9B6 PUSH2 0x9AE DUP6 PUSH2 0x873 JUMP JUMPDEST DUP4 ADD DUP3 PUSH2 0x956 JUMP JUMPDEST POP POP JUMPDEST POP POP POP JUMP JUMPDEST PUSH0 DUP3 DUP3 SHR SWAP1 POP SWAP3 SWAP2 POP POP JUMP JUMPDEST PUSH0 PUSH2 0x9D9 PUSH0 NOT DUP5 PUSH1 0x8 MUL PUSH2 0x9BE JUMP JUMPDEST NOT DUP1 DUP4 AND SWAP2 POP POP SWAP3 SWAP2 POP POP JUMP JUMPDEST PUSH0 PUSH2 0x9F1 DUP4 DUP4 PUSH2 0x9CA JUMP JUMPDEST SWAP2 POP DUP3 PUSH1 0x2 MUL DUP3 OR SWAP1 POP SWAP3 SWAP2 POP POP JUMP JUMPDEST PUSH2 0xA0A DUP3 PUSH2 0x5BC JUMP JUMPDEST PUSH8 0xFFFFFFFFFFFFFFFF DUP2 GT ISZERO PUSH2 0xA23 JUMPI PUSH2 0xA22 PUSH2 0x3F9 JUMP JUMPDEST JUMPDEST PUSH2 0xA2D DUP3 SLOAD PUSH2 0x831 JUMP JUMPDEST PUSH2 0xA38 DUP3 DUP3 DUP6 PUSH2 0x978 JUMP JUMPDEST PUSH0 PUSH1 0x20 SWAP1 POP PUSH1 0x1F DUP4 GT PUSH1 0x1 DUP2 EQ PUSH2 0xA69 JUMPI PUSH0 DUP5 ISZERO PUSH2 0xA57 JUMPI DUP3 DUP8 ADD MLOAD SWAP1 POP JUMPDEST PUSH2 0xA61 DUP6 DUP3 PUSH2 0x9E6 JUMP JUMPDEST DUP7 SSTORE POP PUSH2 0xAC8 JUMP JUMPDEST PUSH1 0x1F NOT DUP5 AND PUSH2 0xA77 DUP7 PUSH2 0x861 JUMP JUMPDEST PUSH0 JUMPDEST DUP3 DUP2 LT ISZERO PUSH2 0xA9E JUMPI DUP5 DUP10 ADD MLOAD DUP3 SSTORE PUSH1 0x1 DUP3 ADD SWAP2 POP PUSH1 0x20 DUP6 ADD SWAP5 POP PUSH1 0x20 DUP2 ADD SWAP1 POP PUSH2 0xA79 JUMP JUMPDEST DUP7 DUP4 LT ISZERO PUSH2 0xABB JUMPI DUP5 DUP10 ADD MLOAD PUSH2 0xAB7 PUSH1 0x1F DUP10 AND DUP3 PUSH2 0x9CA JUMP JUMPDEST DUP4 SSTORE POP JUMPDEST PUSH1 0x1 PUSH1 0x2 DUP9 MUL ADD DUP9 SSTORE POP POP POP JUMPDEST POP POP POP POP POP POP JUMP INVALID LOG2 PUSH5 0x6970667358 0x22 SLT KECCAK256 CALLVALUE 0xC0 0xC1 CODECOPY EOFCREATE 0xB9 SWAP7 0xDE PUSH27 0xA4F6281B97D24C5DBDCBFCE272EA3BA4DEC13F3B7F7DB064736F6C PUSH4 0x4300081E STOP CALLER "
				},
				"gasEstimates": {
					"creation": {
						"codeDepositCost": "564400",
						"executionCost": "24863",
						"totalCost": "589263"
					},
					"external": {
						"buyChai(string,string)": "infinite",
						"getMemos()": "infinite"
					}
				},
				"methodIdentifiers": {
					"buyChai(string,string)": "6a13d859",
					"getMemos()": "865c5172"
				}
			},
			"storageLayout": {
				"storage": [
					{
						"astId": 14,
						"contract": "contracts/chai.sol:chai",
						"label": "memos",
						"offset": 0,
						"slot": "0",
						"type": "t_array(t_struct(Memo)10_storage)dyn_storage"
					},
					{
						"astId": 16,
						"contract": "contracts/chai.sol:chai",
						"label": "owner",
						"offset": 0,
						"slot": "1",
						"type": "t_address_payable"
					}
				],
				"types": {
					"t_address": {
						"encoding": "inplace",
						"label": "address",
						"numberOfBytes": "20"
					},
					"t_address_payable": {
						"encoding": "inplace",
						"label": "address payable",
						"numberOfBytes": "20"
					},
					"t_array(t_struct(Memo)10_storage)dyn_storage": {
						"base": "t_struct(Memo)10_storage",
						"encoding": "dynamic_array",
						"label": "struct chai.Memo[]",
						"numberOfBytes": "32"
					},
					"t_string_storage": {
						"encoding": "bytes",
						"label": "string",
						"numberOfBytes": "32"
					},
					"t_struct(Memo)10_storage": {
						"encoding": "inplace",
						"label": "struct chai.Memo",
						"members": [
							{
								"astId": 3,
								"contract": "contracts/chai.sol:chai",
								"label": "name",
								"offset": 0,
								"slot": "0",
								"type": "t_string_storage"
							},
							{
								"astId": 5,
								"contract": "contracts/chai.sol:chai",
								"label": "message",
								"offset": 0,
								"slot": "1",
								"type": "t_string_storage"
							},
							{
								"astId": 7,
								"contract": "contracts/chai.sol:chai",
								"label": "timestamp",
								"offset": 0,
								"slot": "2",
								"type": "t_uint256"
							},
							{
								"astId": 9,
								"contract": "contracts/chai.sol:chai",
								"label": "from",
								"offset": 0,
								"slot": "3",
								"type": "t_address"
							}
						],
						"numberOfBytes": "128"
					},
					"t_uint256": {
						"encoding": "inplace",
						"label": "uint256",
						"numberOfBytes": "32"
					}
				}
			},
			"userdoc": {
				"kind": "user",
				"methods": {},
				"version": 1
			}
		}
	}
}